:020000040800F2
:1000000008100020710100084B3C0008EF28000890
:100010004B3C00084B3C00084B3C00084B3C0008A4
:100020004B3C00084B3C00086C4000084B3C00086F
:100030004B3C00081C4000084B3C00084B3C0008AF
:100040004B3C00084B3C00084B3C00084B3C000874
:100050004B3C00084B3C00084B3C00084B3C000864
:100060004B3C00084B3C00084B3C00084B3C000854
:100070004B3C00084B3C00084B3C00084B3C000844
:100080004B3C00084B3C00084B3C00084B3C000834
:100090004B3C00084B3C00084B3C00084B3C000824
:1000A0004B3C00084B3C00084B3C00084B3C000814
:1000B0004B3C00084B3C00084B3C00084B3C000804
:1000C0004B3C00084B3C00084B3C00084B3C0008F4
:1000D0004B3C00084B3C00084B3C00084B3C0008E4
:1000E0004B3C00084B3C00084B3C00084B3C0008D4
:1000F0004B3C00084B3C00084B3C00084B3C0008C4
:100100004B3C00084B3C00084B3C00084B3C0008B3
:100110004B3C00084B3C00084B3C00084B3C0008A3
:100120004B3C00084B3C00084B3C00084B3C000893
:100130004B3C00084B3C00084B3C00084B3C000883
:100140004B3C00084B3C00084B3C00084B3C000873
:100150004B3C00084B3C00084B3C00084B3C000863
:100160004B3C00084B3C00084B3C00084B3C000853
:1001700008B50B4B83F30A880A4B07A1D1E90001AC
:10018000C3E9000102F076F800F0ACFC02F04CF894
:1001900002F05EF800F038FCA5EDF5FEA5EDF5FEE9
:1001A00008000020081000200348044B834202D0BE
:1001B000034B03B118477047C8600020C860002097
:1001C00000000000064B0749C91A891048BF0131D9
:1001D000491003D0044B0BB101481847704700BFCA
:1001E000C8600020C86000200000000010B5064C68
:1001F000237843B9FFF7D8FF044B13B10448AFF39A
:1002000000800123237010BDDA5D00200000000093
:10021000D841000808B5054B1BB105490548AFF3A7
:100220000080BDE80840FFF7CDBF00BF0000000020
:1002300010100020D84100080023024A1370024A1F
:1002400013707047DC5D0020DB5D002038B503785B
:100250000446042B0D463FD009D8012B0BD0032BAD
:100260004FF018033CD040F603102B7038BD182B0C
:1002700036D0432BF4E7224B4278197801BB012A90
:1002800003D0152340F60410EFE71A70A378134447
:10029000FF2BF6D100228021E01C03F096FC94F89D
:1002A0008320C0F30F239A4221D194F88430C0B246
:1002B000834220D1134B627800201A700623D4E7C2
:1002C000104B1B7893420ED00133DBB29342DDD04A
:1002D000152340F60510C8E7062340F60710C4E7CB
:1002E00040F60810C1E7062340F60610BDE71523C7
:1002F00040F60210B9E7152340F60110B5E700BF3C
:10030000DB5D0020DC5D00200149024800F03AB8C6
:10031000383F00082810002010B592B04722184935
:10032000684603F07DFD02F0BFFA0A22C0F30363C2
:10033000092B8CBF373330338DF81430C0F30343AF
:10034000B3FBF2F102FB113300F00F0030338DF8F4
:100350001730B0FBF2F302FB130001F13004303030
:1003600003F130018DF819108DF81A000122472190
:1003700068468DF8164000F0B3FD002012B010BDA5
:10038000483F00082DE9F04F0024ADF5257D4FF4DE
:100390009472064688465AA821468DF80B4003F011
:1003A00037FD2146682204A803F032FD2146682269
:1003B0001EA803F02DFD3C2700F06CFC01254FF03A
:1003C000FF34DFF82093DFF820A3DFF820B36B1EA3
:1003D000052B09D8DFE813F00C001E0041005B007C
:1003E0005401C0000425F2E7FFF796FF0125EEE770
:1003F0004FF47A7103A802F0ECFA38B99DF80C308A
:10040000312B05D0322B0CBF052500253C27DEE71C
:100410000225FBE701221121AE4800F061FD2C22EC
:100420000021304603F0F4FC20231EAA04A95AA898
:1004300001F0BAF80025FF230121052073707580B3
:1004400000F04EFC00F098FD18B10121284600F0A4
:1004500009FEFFF7F1FE0325B9E7432002F0BDF9DD
:1004600000214FF47A7000F03BFC00F085FD18B9D4
:1004700000F05CFC0028F8D000F07EFD0028B1D12F
:10048000013FA4D1182002F0A8F900259FE7002120
:1004900085220DF1E10003F0BBFC002140F6B830ED
:1004A00000F01EFC00F068FD88B34FF47A730093EF
:1004B000012303AA19460DF1E10000F081FD9DF82A
:1004C000E130012B0DD140F6B832842100920DF1BC
:1004D000E20003AA00F074FD039B0446842B1AD1AA
:1004E000D8B90DF10B010DF1E100FFF7AFFE40F6B9
:1004F0000713984204461AD1B378A3B1F37893B1A5
:1005000006259DF80B00182808BF062508E000F016
:100510000DFC0028C6D040F2047415208DF80B00A5
:1005200002F05BF953E718238DF80B30E8E7002859
:10053000E7D19DF8E130012BE3D180233146CDF89E
:10054000008039AA5AA801F06BF804460028D8D0D8
:1005500018238DF80B30D4E70121002000F082FD34
:1005600001210A2000F0BCFB9DF80B300122062B74
:1005700008D140F607139C4204D11B21564800F0D5
:10058000AFFC82E71A21504600F0AAFCA4F51063E4
:10059000B3F5E06F4FF0010213D211214F4800F084
:1005A0009FFC40F606139C4213DCB4F5106F10D08C
:1005B000A4F60213042B4FD8DFE803F050484C5246
:1005C00054001021584600F08BFC40F606139C4264
:1005D0001ADC9DF80B309F2B4FEA13108CBF37307D
:1005E000303000F0B5FC9DF80B0000F00F0009283A
:1005F0008CBF3730303000F0ABFC0D2000F0A8FC91
:100600000A2000F0A5FC40E7A4F58053013B092B2C
:10061000DFD8A4F58053013B092BDAD801A252F8A8
:1006200023F000BF79060008D3050008D3050008B1
:100630007D0600086D0600087506000879060008AA
:1006400071060008690600087906000821238DF864
:100650000B30BEE72223FAE72323F8E72423F6E74B
:100660002523F4E72723F2E74123F0E74323EEE7CE
:100670004423ECE74523EAE74F23E8E75023E6E786
:10068000B37813B3F37803B333785A0709D5B06A54
:1006900002F00FF900283FF4F8AE114800F044F9D9
:1006A000F3E69B070CD5756802F0FEF8854203D986
:1006B000716A0B4800F0EEF80122132148465EE70C
:1006C00040F2012000F086FAF6E740F2032000F045
:1006D00081FADAE6F83F0008DD3F0008B23F000883
:1006E000008000088F3F0008C33F0008A23F0008B9
:1006F00037B500F1006303F500430193104B0D463D
:10070000984214461AD8019A0E4B9A4216D2019A70
:100710009B1AA34212D348B94FF000639B6A0A4A5E
:100720005969914202D9186900F07EFA2246294699
:10073000019803B0BDE8304002F069B803B030BDA5
:10074000FF7FFFF700E00708008000087FB56FF02B
:10075000006200F178419142034619D26D460D4A7C
:1007600002F110062C4610685168083203C4B242E8
:100770002546F7D15A1E04A90F3311F8014D12F87E
:10078000010F844204D19A42F7D1012004B070BD18
:100790000020FBE709400008F0B50368044603F1B8
:1007A0006043B3F5803F9FB033D84FF000639B6A3E
:1007B00042681E6996422CD8344B9A4229D8456B20
:1007C00006F14002AA425ED89D425CD82846FFF757
:1007D000BDFF002857D0284602F04CF880B16B6965
:1007E00073B1022B0ED1AB69C4F1040119444FF06F
:1007F000FF32204601F006FB254BC31A58425841F0
:100800001FB0F0BD40F2046328460293FFF79EFF3D
:1008100008B90020F4E74FF000635F6B3846FFF73C
:1008200095FF0028F5D0A6F150039F42F1D8284645
:1008300003A902F026F80028EBD0039DAE42E8D8C9
:10084000AC42E6D8114B9D42E3D804A801F09EFBD0
:1008500021462A1B04A803F0D6F904A803F0D5F911
:1008600001F0A4FB044601F0BFFB2346009029469B
:1008700005F1200204A801F009FB02900298B0FAE9
:1008800080F04009BCE70120BAE700BF000008087B
:10089000E320BBDE70B54FF0FF3290B005460C464A
:1008A00001F0B0FA1C4B984232D14FF480621B4BDE
:1008B00000219A6601A81C2203F0AAFA184B2946C7
:1008C0006846043C009303F0F6FA2146684603F0BC
:1008D000F2FA684603F0F8FA01F090FF0646B8B95C
:1008E00040F2022000F06AF91C22314609A803F008
:1008F0008FFA0C4B294608A8089303F0DCFA08A8E5
:10090000214603F0D8FA08A803F0DEFA01F076FFDA
:10091000002010B070BD00BFE320BBDE009000409F
:1009200001000543010006434FF4806230B50446E0
:10093000154B91B09A6600211C2201A803F068FAB9
:10094000124B21466846009303F0B5FA684603F05F
:10095000BBFA01F053FF054698B940F2022000F0BF
:100960002DF91C22294609A803F052FA084B08A8C1
:100970002146089303F09FFA08A803F0A5FA01F0B6
:100980003DFF002011B030BD009000400000024348
:10099000000003434FF4806210B50F4B8CB0044647
:1009A0009A6600211C2205A803F032FA0B4B019431
:1009B0000493012302930A4B01A904A8039303F0B3
:1009C000D4F904A803F080FA01F018FFB0FA80F01F
:1009D00040090CB010BD00BF00900040000008436B
:1009E00004000020004870470080000840B139B181
:1009F00000230B60034B03600B6843F400030B60A0
:100A0000704700BF0C1200084FF480302F49304A65
:100A10004B6E10B55066486E4FF000414AF6CD342B
:100A200051662C4903F480334A6C0C6402F00102D5
:100A30004C6BE407FCD4012427494C60A1F500511C
:100A40000C6BE407FCD50AB1244A0A640028A2BF53
:100A50004FF00041224A51661BB94FF48032204BBF
:100A60005A664FF04023D3F88420110606D44FF481
:100A700000621A67D3F88420D206FBD401F029FF64
:100A800000F086F801F0A4FE01F0A4FE18B14FF4C6
:100A9000017000F09FF8FFF737FC044601F09CFE60
:100AA00034B940F2012000F095F84FF4017009E0EC
:100AB00040F203739C42F4D0A4F20574012CF4D8E4
:100AC00040F2032000F086F8002010BD00800040B6
:100AD0000090004000400940006009403254FFFF90
:100AE00000A00040012307B58DF806308DF80730CF
:100AF0004FF04023D3F894305A060FD500F07EF81B
:100B0000A0F2022080B2072808D8C923C340DB071F
:100B100042BF00238DF806308DF80730194B5B6813
:100B2000013308D14FF4027000F048F800238DF82B
:100B300006308DF807309DF807305BB11148FFF79C
:100B40002BFE8DF806009DF806301BB94FF402709D
:100B500000F034F89DF8063083B14FF4803307215C
:100B6000094A0848936602F52032C2F82011A2F51E
:100B70001C329366054B986001F0AFFE03B05DF840
:100B800004FB00BF006000080090004000ED00E0A2
:100B90004CF23C32014B5A80704700BF00000020ED
:100BA0004AF6C030044B5B8823F00F039BB21B1A3C
:100BB00058425841704700BF00000020044A08B561
:100BC0001080FFF7EDFF10B94FF20F03538008BDFF
:100BD0000000002008B5FFF7F1FFBFF34F8F054974
:100BE000054BCA6802F4E0621343CB60BFF34F8F3A
:100BF00000BFFDE700ED00E00400FA054FF20F0131
:100C0000084B5A888A4201D1188870473AB91B8824
:100C100040F20220012B18BF4FF4007070474FF4D0
:100C200000707047000000204FF4803208B5044B7C
:100C30009A6601F0B1FBB0FA80F0400908BD00BF30
:100C400000900040072BF8B506460F4614461D4697
:100C500001D90020F8BD0121202001F019FB01215C
:100C6000212001F015FB8CB144EA06039B07F0D16B
:100C70004FF48032064B31469A66284623463A4660
:100C800001F0B2FBB0FA80F04009E3E70120E1E7B0
:100C9000009000401FB510220E4B5A6600F000FA7B
:100CA0004FF47A23B0FBF3F00B4B0F2218600021B6
:100CB0000DF1010003F0ACF801238DF8003040F293
:100CC000FF3369460548ADF8023002F0D5FF05B0A4
:100CD0005DF804FB009000405410002000800440A8
:100CE00030B50D4D0D4A2D68536A15FB00F515FA08
:100CF00083F09CB280B2A0422CBF00240124084B98
:100D00001880084B1C7011B1536A8342FCD1012337
:100D100005494B61936130BD5410002000800440B0
:100D2000D85D0020DD5D002000A00440094B0A4A88
:100D30005869127800F001000AB108B9704738B953
:100D4000586A064B1B88984234BF00200120704728
:100D50000120704700800440DD5D0020D85D002048
:100D60002DE9F047DFF84491494BD9F80020494F6D
:100D700002F13C01996002F124037B627B604FF039
:100D80008063DFF82CA101250AF58058C8F864308B
:100D90004FF40073C8F8643002F580535D6040F68C
:100DA000AA630024536141F205033B4E3B4802F520
:100DB00000519460D465D3601461D461D4648864B4
:100DC000C6F89847C6F8B047C6F8A847C6F8A0477F
:100DD000C6F8A447D3609368936000F061F9DAF82D
:100DE00070300821C3F380232B44B0FBF3F24FF49F
:100DF000E11302F5E1425201B2FBF3F2284B203A33
:100E000003EAC203D9F800202046D3612B4604220E
:100E100001F058FA2B462A460921204601F052FAE1
:100E20001423C6F898374FF40023C6F8B0374FF4B0
:100E30001023042221462846C6F8A8372B4601F085
:100E400041FA0522D9F800304FF0F0515A610323DE
:100E50004FF48020134AC8F86430556091601249FD
:100E60005462946314645465486002301466D46517
:100E700017678860A1F50051C2F89040C2F88C4015
:100E80004B630223956402F580521361BDE8F0873D
:100E9000A06000206060002000C00340FFFF010050
:100EA000F8FF7F000000044000400440B0600020D4
:100EB00000800040084B586B10F0020006D0022260
:100EC0009A6203F5005301205A637047DB6A9B075F
:100ED000FBD40222014BF6E700000440002004404E
:100EE00070B54E1E7E2E0446154622D8FFF7E2FF4F
:100EF00010B32046124B214410F8012B884203F80E
:100F0000012BF9D10F4B1A8866F30E121A800E4A84
:100F1000C2F8A030022393640DB9002070BDFFF722
:100F2000C9FF0028FBD0094B1A6893699B06FCD5C2
:100F3000F3E741F20310F1E741F20620EEE700BFCC
:100F4000DE5D0020A060002000000440B0600020B2
:100F5000014608B5FFF7AEFF0028FBD0054B1B6824
:100F60009A695006FCD5D9639A699206FCD500208F
:100F700008BD00BFB06000200E4A0F4B106840F261
:100F80000112DB6E934205D190B10023C0F50070D1
:100F90001844704740F2022293420EBF4FF4807310
:100FA000064A9B1A984202D0F0D2181A70470020C5
:100FB000704700BF58100020000004405E5E002013
:100FC0002DE9F843089D04460E461746F3B9FFF78E
:100FD000D3FFB04228BF304600214FF001084FF048
:100FE00002091D4A054604EB000C1368DFF870E0A7
:100FF0001A4864451CD101B1136007B13D6041F24C
:101000000420AE4298BF0020BDE8F8832DB1FFF761
:1010100041FE00212846FFF763FEFFF7ADFFB04217
:10102000D5D2002DF9D0FFF781FE0028F5D0CEE70C
:101030001EF803100133B3F5007F04F8011B04D13F
:101040000023C0F810900121D3E7B3F5807F08BFDB
:10105000C0F81080F7E700BF5810002000100440CF
:101060005E5E002010B10222094B9A6271B101222A
:101070000020074B07499A624A63074919670749E5
:1010800008609A64022203F580531A6100207047B9
:101090000000044000200440606000205810002040
:1010A00030B51C4B87B001AA03F11005144618682F
:1010B0005968083303C4AB422246F7D11B7823702A
:1010C000154B1B6F03F00703032B1FD04FF4802237
:1010D000124B5A66124A9368C3F30443102B17D875
:1010E00018336B440F4913F8143C4B430E498B42A1
:1010F00003D19268C2F30162D340074A106FC0F374
:1011000003300130B3FBF0F007B030BD074BF4E71C
:10111000074BF2E7B4400008008000400090004018
:101120000000014040420F0000093D0000F049026C
:10113000C0EA21010A4B186830B9B1F5205F0DD81B
:10114000012208481A607047012806D1B1F5005FF6
:1011500003D8022204481A6070470020704700BF7D
:101160005C100020D8350020D815002031B1044A89
:101170001368002BC4BF03F1FF331360704700BF37
:101180005C10002002232DE9F04F88461646002708
:101190008BB0DFF8C490DFF8C4A005908DF81F3045
:1011A0009DF81F20022A07D0002E48D041F20231BC
:1011B000012A18BF0F4642E0D9F80010234DC1F5AF
:1011C00040730893DAF80030214809930DF11F03AA
:1011D00002930023019309AB009308AA1D4B2944F5
:1011E00002F098FB9DF81F3038BB63B3089BD9F819
:1011F000004029461C4424F0030B43465A460598F8
:1012000000F07EF914F00304074605D02246284674
:1012100005EB0B0102F0E2FDDAF800200999C9F8AC
:1012200000408A42A2EB010404D90A482246014444
:1012300002F0D4FDCAF80040B2E741F20337384665
:101240000BB0BDE8F08F41F20237F8E7D410002070
:1012500060100020D8130020D0100020D4130020EC
:1012600008B570220021064802F0D2FD01220020BC
:10127000044B1A70044B1860044B186008BD00BF83
:10128000601000205E600020D0100020D4130020E9
:101290002DE9F84399465B6806468846144643B3F1
:1012A0001E4B1D78A5B100221A7051F8043B05228F
:1012B00003661B4B1B4800F077F860BB194802F02F
:1012C00016FAD6F88C50184B9D4214BF11251925DB
:1012D000164F641B3B68C3F50073A3420CD33E68F2
:1012E00013482246304408EB0501264402F098FDDD
:1012F0003E600020BDE8F883002249463046FFF7F3
:1013000041FF0028F6D13B68C3F50073A342E6D243
:1013100041F20430EEE741F20530EBE75E60002079
:10132000B860002060100020F80C0CF8D4130020E6
:10133000D8130020436D3BB9D0F88C00034B984282
:1013400014BF11201920704701207047F80C0CF8C9
:101350004B6870B505460C46E3B10122FFF712FF5A
:10136000C8B90D4B186888B10C4E0428C0F10402AE
:101370004FF0FF0188BF0022304402F049FD2346B0
:1013800004223146284600F0BBF820B9044905483C
:1013900002F03CFB002070BDD0100020D4100020D3
:1013A000B8600020601000202DE9FF41E8460446A7
:1013B00040461E4602F036FB054660BB32464146BB
:1013C000204602F002FB054628BB039AB2F1804F8B
:1013D00025D240F6FF731649B2F5800F28BF0B46A1
:1013E0009F1827EA03076169974238BF174611B172
:1013F000A36ABB4215D0304673689847002339462C
:101400006361304633689847606150B93146204681
:1014100002F0D2FA0225284604B0BDE8F081054B5F
:10142000DEE798E80F00A76284E80F00F3E700BF4B
:10143000FFFF0F00FFFF3F000068024BC31A584236
:1014400058417047FD0707FD034A044B90420CBF0B
:1014500018460020704700BFFD0707FDC840000880
:1014600030B5024600230C25054905FB03F460183E
:101470000C59944203D001330D2BF6D1002030BD1E
:10148000DC400008F0B50023082787B0CDE9013320
:1014900015463B46009704AA044602F006FB41F2BB
:1014A00003039842064623D194F8433053B13A4699
:1014B000E06C04A902F0A7FB04AA3B461146A06C0D
:1014C00002F090FB059A049B6A6094F843202B601D
:1014D00052B9094A934207D0084A934204D00822DD
:1014E000E06C04A902F08FFB6B6823650023636541
:1014F000304607B0F0BD00BFF70A0AF7FC0404FC51
:101500002DE9F04799465B6804460F469046002B4C
:101510003FD08B0740D14FF000639B6A006E1B6980
:1015200081181D1DA9421BD31C33984218D2A84212
:10153000024638BF2A46994294BFC2EB010AC2EB69
:10154000030A101A3E18C5F168001044314652468D
:10155000204402F065FC5246FF21304602F058FC60
:10156000226E0F4B9A420BD80E4902EB08008842BC
:1015700006D39B1AFA58C4F880204FF0FF32FA5075
:10158000D9E9003542463946206EA847236E4344C8
:1015900023660020BDE8F08741F20200FAE700BFB1
:1015A00004800008088000082DE9F04100254FF074
:1015B000FF3704468846164603F0200380F8423081
:1015C0001822FF21C0E91855A0F8405080F8435078
:1015D000A0F8445080F84650C0F88870683002F097
:1015E00017FC88222946C4E91286C4F88070C4F822
:1015F000847004F1900002F00BFC084BC4F82071D9
:10160000C4E9463584F824512EB1304600F0BEFCC2
:101610002846BDE8F08141F20B00FAE70001010124
:101620002DE9F04FA9B0CDE9152305930023044619
:101630000E464FF00109329D1793179A059B9A4267
:1016400001D30020EEE094F84630142BF6D8DFE802
:1016500013F07E00CE0078006000470053010402C2
:101660004700FC0147002C004700FC015203D10356
:1016700015004901F602F6028602CF030027636DCA
:101680000F2B62D8102318AA009320464023CDE9DF
:10169000019715A902F009FA41F203030B900B9A86
:1016A0009A4200F011810B9B5DE0DFF890A3636D1F
:1016B000072B00F22E814FF0080838231AAA204683
:1016C000CDE90199CDF8008015A902F0EEF941F2BB
:1016D00003030D900D9A9A4200F050810D9B42E059
:1016E0004FF00108D4E914739F422ED9FF1ADDE9A7
:1016F00016329B1A94F84020032F134440F2B18114
:10170000032B00F2C581204615A902F0ADF9002394
:1017100029E00127636D072B00F2FB80082318AA3C
:10172000009320464023CDE9017715A902F0BDF9C9
:1017300041F203030E900E9A9A4200F049810E9BEB
:1017400011E00027636D072B22D9012382E118AA3B
:10175000204615A9FFF796FE41F203020890089B68
:10176000934208D0089B079341F20303079A9A42D9
:101770003FF463AF55E0199A18992265002262651B
:10178000AC4A914240F03181022284F84620EAE7D7
:10179000082318AA009320464023CDE9019715A9F4
:1017A00002F083F941F203030990099A9A4201D0A9
:1017B000099BD8E7189B03F07F43B3F1407F05D026
:1017C000142384F8463041F20903CCE7199AD00774
:1017D00042BF94F8423043F0010384F84230D1050F
:1017E000B0D4142384F8463041F20A03BBE7204604
:1017F00018AA15A9FFF746FE41F203030A90DDF887
:101800002880984511D0DDF8288041F20303CDF8F7
:101810001C80079A9A423FF410AF079B0BB100233C
:10182000F370079829B0BDE8F08F1898FFF718FEFD
:10183000074628B9142341F2080884F84630E4E743
:10184000437994F824219A4205D9142341F20E08D1
:1018500084F84630D9E70168774A914205D0028979
:10186000D20748BF013384F8243194F84230D807B6
:101870000DD53A8994F84330910706D53BB114232E
:1018800084F8463041F20108BFE7002BF7D018A8D2
:10189000FFF7D2FD18B93B7984F84630B5E71898C0
:1018A000C4F88C00FFF7D0FD94F842309A06F2D5C8
:1018B0000028F0D04368002BEDD0204698470A90CE
:1018C0000A9B002BE7D0DDE7D4F8488000F0AAFBA4
:1018D00080230221CDE9000319AA0123404600F02C
:1018E000A9FACCE6226D0123A265002284F84330D8
:1018F000E26584F84630A0E600213C2219A8189140
:10190000012702F085FAD4E91432934204D884F80E
:10191000467041F2030326E7009318AA40232046AD
:10192000CDE9017715A902F0C0F841F203030C904C
:101930000C9A9A4201D00C9B15E706F1080E7346EB
:101940000DF1600C0DF17808624603CA424518603B
:101950005960944603F10803F6D110681860337893
:10196000704643F00103337000F00AFF0028CAD12B
:10197000142384F8463041F20C03F4E6337843F044
:10198000040333701B9BB36273785B071CD5002084
:10199000236DCDF860A0C4F8843094F845306066BB
:1019A00043F0020384F84530EF686FB104222B68DE
:1019B00018A9B847606E2B684246EF681AA908302C
:1019C000B847636E103363660B2384F846306EE6C7
:1019D000337843F002033370189B7360236D083B28
:1019E0007362199BB3F1006F05D0142384F846305D
:1019F00041F20103B7E6042384F8463094F84530F9
:101A000043F0010384F845300023636682E6042333
:101A100018AA009320464023CDE9017715A902F0CA
:101A200044F841F203030F900F9A9A4208D00F9B9B
:101A300099E600BFEB17A603F90707F9EB17A65EB7
:101A4000226D189B042A01D923660127636D032B9D
:101A5000DDD9092384F846305BE70023636607235A
:101A600047E79F423FF64FAE9F4228BF1F464023A5
:101A700018AA2046CDE90188009715A902F015F8AB
:101A800041F203031090109A9A420AD0109B6AE622
:101A9000402F28BF40279F4228BF1F4627F003073B
:101AA000E5E794F846B0BBF1070F1BD0042FC7F150
:101AB000040A88BF4FF0000A18AB5246FF21D8191C
:101AC00002F0A6F9BBF1090FBA4419D12B465246D0
:101AD000204618A9FFF714FD1090109B002B3FF42F
:101AE00001AED3E7D5F808A0BAF1000FDED02B681D
:101AF0003A46606E18A9D047636E3B446366F1E5D1
:101B0000BBF1040F1FD173789F077FF5EBADEB6836
:101B1000002B3FF4E7AD626E042A0BD80AEB0203F8
:101B2000062B07D919AB9B1A1A68C4F884204FF00A
:101B3000FF321A60EF682B685246606E18A9B847EA
:101B4000636E5344DAE7BBF10B0F7FF4CBAD7378D0
:101B500058077FF5C7ADEF68002FECD1C2E594F8C8
:101B6000427017F0200707D0D4F88C00FFF76CFC08
:101B7000074600283FF43CAF4FF0010A44E05BB356
:101B800057B33B6943B320469847DDE916329B1AA9
:101B900094F8402013448342FFF4B5ADD4E91421F6
:101BA000A2EB0108B8F1400F28BF4FF0400898455C
:101BB00028BF984618AA40232046CDE901AACDF8AF
:101BC000008015A901F071FF41F203031190119AF1
:101BD0009A4203D0119BC6E50120D6E794F8423023
:101BE000990611D5002F3FF403AFD7F808B0BBF129
:101BF000000F3FF4FDAE2B464246204618A9D847B9
:101C00001190119B002BE5D1D4E9142194F84230B6
:101C1000914203F02003B2D3002B3FF496AD002F86
:101C20003FF493ADFB68002B3FF48FAD294620466F
:101C300098471190119B002B3FF487ADCAE74FF0F6
:101C400000618A6A496B1269503A91423FF6D0AE00
:101C5000112B0FD194F81831002B7FF476AD41F29F
:101C600006031293129A9A4202D1142384F8463042
:101C7000129B78E594F84430002B7FF466ADCDE9F3
:101C80000133402318AA0093204615A901F00DFF47
:101C900041F203031290129A9A42E9D1E06C01F0EA
:101CA000B4FF94F81831A3B104F1B4030093E06CCD
:101CB00004F1940320AA18A900F0E8F81290129BEE
:101CC000A3B10023F370142384F8463041F20603D5
:101CD00049E5D4F84C8000F069F9074600F084F932
:101CE0003B46009020AA404618A9E5E70123F3707F
:101CF00084F8443029E500234FF00408CDE901338E
:101D000018AA40232046CDF8008015A901F0CDFE89
:101D100041F203031390139A9A4202D0139B079344
:101D20007FE5D4F88820354B9A4205D0142384F8F7
:101D3000463041F20503F2E794F8443033B9F370CA
:101D4000142384F8463041F20603E8E7F378002BC9
:101D500047D094F84530DA0707D5EF682FB14246EF
:101D600040462B6804F18401B84794F845309B073E
:101D700007D5EF682FB104222B68104604F18401C7
:101D8000B847236E6BB36F685FB34FF0FF3304F156
:101D900080080422414614A8149302F00FF820B1E1
:101DA000042241462B681648B84704F1680904220A
:101DB000494614A802F002F898B14FF000639B6AFC
:101DC0001422D3F8108004F16C0108F10800D5E961
:101DD0000037B847D5E900370422494608EB02002E
:101DE000B8470123B3700E2384F84630002396E7EA
:101DF0000023F37041F2070014E500BFE320BBDECF
:101E00000480000830B50824094B00255C660124D5
:101E100003F5FE235C6001449D601A61DC6088422A
:101E200001D1586A30BD10F8012B1A62F7E700BFE4
:101E3000009000402DE9F04116464FF480621D46A7
:101E4000114B00F1200804469A6640460F4601F007
:101E500096FFDDE90612404601F095FF002384F865
:101E6000587063643368C4F859307368C4F85D30DF
:101E7000B368C4F861302B0C6DBA84F86530A4F8EF
:101E80006650BDE8F08100BF009000402DE9F043AE
:101E900015464FF480621C46364B99B0DDF88090B1
:101EA0000E4607469A66002861D000295FD0002DB3
:101EB0005DD0002C58D0304B304AB9F1000F14BF20
:101EC000984690461C22002111A801F0A1FF2C4B3E
:101ED000414610A8109301F0EEFF202110A801F058
:101EE000EAFF0122274B019402920393CDF8109050
:101EF0000592069354B1B9F1000F07D001A910A8BB
:101F000001F029FF04A910A801F025FF0797012778
:101F10001C4C07A910A80897099401F01CFF0AA9F6
:101F200010A80A960B970C940D950E970F9401F03C
:101F300012FF0DA910A801F00EFF10A801F0C4FFB8
:101F4000114B00934FF098435A6CD202FCD55B6D55
:101F500040F2046003F470230093009B002B08BF41
:101F6000002019B0BDE8F083DFF81080AAE740F246
:101F70000160F6E7009000401F2400801F24FC84CD
:101F80000000010620000020785634124FF48062D1
:101F900010B50446044B9A6601F03AFE2046BDE8AF
:101FA0001040002101F038BE009000404FF48062E4
:101FB00000B50B4B9BB09A660021242201A801F0CA
:101FC00027FF402300210AAA01A800F07DFA20F093
:101FD00010000128034818BF00201BB05DF804FB67
:101FE000009000404CE307084FF4806200B50B4BB3
:101FF0009BB09A660021242201A801F009FF40232A
:1020000000210AAA01A800F05FFA20F010000128C0
:10201000034818BF00201BB05DF804FB009000408F
:102020006CE307080048704786E207082DE9F3478C
:102030001446DDE90A920D461F4600284DD14CB3E7
:1020400013683F2B2AD8516851B32549002F14BF7C
:10205000B846884603F03F061B19136022BF536839
:1020600001335360FEB93F2C0ED9A3092A460093D1
:1020700041463B46002000F083F824F03F031D4416
:1020800004F03F0434B100262246294609EB06003D
:1020900001F0C6FE002002B0BDE8F087B846D9E7DF
:1020A000DFF83C80D6E7C6F1400A5445ECD3294618
:1020B000524609EB060001F0B3FE012326440093CB
:1020C0004A463B4641460020A6F1400400F058F83D
:1020D0003F2C5544D6D9B846C7E70248DBE700BFD6
:1020E000B841000880AFFFFF2DE9F04117461468A2
:1020F00086B01E46E3008DF80F3063098DF80E3070
:10210000630B8DF80D30630D8DF80C305368054668
:10211000DA0002EB54728DF80B2004F03F045A09E8
:10212000372C8DF80A204FEA53324FEA53538DF87B
:102130000920884694BFC4F13802C4F17802CDE981
:1021400000178DF808300D4903460020FFF76EFF99
:1021500008222B460020CDE900870DEB0201FFF796
:1021600065FF284605F1200350F8042B984246F8F5
:10217000042BF9D1002006B0BDE8F08178410008B9
:10218000F0B517464FF480621D46254B93B00E46BE
:102190009A660446202200210AA801F039FE012097
:1021A0004FF0005201970290039204960590069218
:1021B000079508900992002C2FD1189C194BA40167
:1021C00021460AA80A9301F076FE039B04A91C434A
:1021D0000394069B0AA843F020030693099B43F04F
:1021E0002003099301F0B7FD01A90AA801F0B3FD8E
:1021F00007A90AA801F0B9FD0AA801F065FE4FF091
:1022000098435A6CD202FCD55B6D13F4702F14BF47
:102210006FF06F00002013B0F0BD6FF07100FAE7AF
:102220000090004000040103064B0748DA1C121A14
:10223000C11E22F00302994288BF0022034901F027
:10224000EFBD00BFC860002060600020E4410008CE
:10225000064B0748DA1C121AC11E22F003029942EB
:1022600088BF0022002101F0D3BD00BF60600020C4
:1022700010100020044B054A9A60D3F8882042F4DD
:102280007002C3F88820704700ED00E000000008ED
:10229000430905D0012B0CD0022B084B18BF00239B
:1022A00000F01F0039B103F58053012282401A600B
:1022B0007047034BF4E703F50053F6E768800040EE
:1022C000648000402DE9F04105460F461E469046C9
:1022D0004AB101233022194C8B4002FB004436B333
:1022E00004F5825423600F21072F05EB450388BFB7
:1022F000A7F108044FEA0313114895BFBC00A400DE
:1023000004330C3308FA04F2A140184401F09EFC97
:10231000B8F1000F09D101233021084ABB4001FB6D
:1023200005223EB102F582521360BDE8F08104F54A
:102330000154D7E702F50152F6E700BF00C00340A1
:1023400030C00340F0B5114A114C124E00F00105A7
:10235000E3695F0713D40DB9334213D103EA0007D1
:102360008F4207D10B4A1A40002A0CBF00206FF0A1
:102370000100F0BD013AEBD16FF00200F9E74FF038
:10238000FF30F6E76FF00100F3E700BF809698009A
:1023900000000340020001004FF4803238B50E4BBC
:1023A0000E4C9A66E56941F6713315400122E363EC
:1023B0000B4B0021DA600223606121202361FFF7CB
:1023C000C1FF10B92120FFF7BDFF0122054BDA60E4
:1023D0000DB10023E36338BD0090004000000340CE
:1023E00000100340002003402DE9F04F01274FF477
:1023F000302530268400DFF8C0C004F1402404F505
:102400008024CCF80470656000244FF48035DFF838
:10241000ACE0DFF8AC9006FB00E6F46534663467A8
:10242000234CDFF8A0A0A56641F6713504F51C34F5
:10243000D4F81C80E563E56807FA00F03D43E560E9
:102440004BB9E26818F4803F22F00102E26029D122
:102450000020BDE8F08F01F5005505EA09056D1A69
:102460009D4228BF1D466161D4F81CB0AF081BF027
:10247000040F19D1013F3F0147F060577766B266FC
:10248000C6F86CA0CCF82400DEF834703842FBD0DB
:10249000084F294478630427CCF828002A44276190
:1024A0005B1BCDE7E363D3E74FF0FF30D1E700BF1D
:1024B0000090004000200440001004400000044050
:1024C00000E0FFFF180003401FB5044660B35AB395
:1024D000402B29D1930727D1042925D8DFE801F023
:1024E000031A24221E004FF4807310490B4323600B
:1024F0000023C4E90133E3610123019202930C4BF1
:10250000204601A9039301F030FC204601F0A8FC0D
:1025100004B010BD4FF400730449E7E705494FF4D8
:102520008063E3E70149FAE72120F1E7010008FFB2
:1025300040000020000008FF2DE9F0410129054678
:102540000E4690461F4692B04AD8046824F04003D5
:10255000802B02D0B4F5807F45D11C2200210BA82E
:1025600001F056FC234A244B0121012E08BF1346DB
:102570000A932B1D0193E408204B44F00054029170
:102580000AA80394CDF81080059106930797089147
:1025900001A9099301F0DFFB04A90AA801F0DBFB04
:1025A00007A90AA801F0E1FB29680AA8C90801F0F7
:1025B00082FC10210AA801F07EFC01F03FFCA8B9C2
:1025C0000AA801F081FC4FF098435A6CD202FCD566
:1025D0005C6D01F03DFC04F4702012B0BDE8F081A8
:1025E0006FF02000F9E76FF07100F6E74FF0FF3071
:1025F000F3E700BF00010004000101041000002007
:102600002DE9F04F074689469846164699B082B1A3
:1026100015683B6823F04002802A03D0B3F5807F21
:1026200040F0A68000244C4505D306B1356000205B
:102630007BE01546EDE75DB1239B229A1B5D525D61
:1026400001355340249A05F00F0513550134EAE78C
:10265000A9EB040ABAF10F0F0BD8239B03EB040A72
:10266000249B1C44239B03EB090BDA4560D14C46A9
:10267000D9E71C22294611A801F0CAFB3E4B3A6853
:1026800010933B1D01930123D20842F000520293A4
:1026900003923A4ACDF8108005930692CDF81C803B
:1026A00008930992239A249922442AF00F0A0A9245
:1026B00021444AF000520B9310A80C920D9101A9ED
:1026C0000E930F9201F047FB04A910A801F043FB01
:1026D0000AA910A801F03FFB0DA910A801F045FBC5
:1026E00007A910A801F041FB396810A8C90801F03A
:1026F000E2FB514610A801F0DEFB01F09FFB90B910
:1027000010A801F0E1FB4FF098435A6CD202FCD5BF
:10271000586D544400F4702B01F09AFBBBF1000F8C
:102720009BD0584601E04FF0FF3019B0BDE8F08F64
:1027300055B1229A1AF8013B525D0135534004F815
:10274000013B05F00F0590E7424601213846229BE8
:10275000FFF7F2FE0028E8D108F1100212F8013D5F
:102760000133DBB21370002BE3D19045F6D1E0E7E3
:102770006FF01F00D9E700BF030300041000002022
:1027800038B54FF000639B6A05461A69546BA24244
:1027900001D3012038BD5B69A342FAD92046FDF779
:1027A000D5FF0028F5D0236913F0FE000ED16A682A
:1027B000236A9A42EED9102204F1280105F10C0097
:1027C00001F0FCFAB0FA80F04009E3E70020E1E70D
:1027D00000F012B8FDF7A0BD704710B50446FEF733
:1027E000B7FB182C07D12046FEF7B2FB2046BDE808
:1027F0001040FEF7ADBB10BDFEF7B2BA4FF09843E4
:102800005A6CD202FCD5586D00F470207047C0F3AA
:102810000C032DE9F04105460F4616460BB9FEF7AD
:1028200003FA05F5005424F4FF5424F01F0405EBCB
:102830000608A04507D8324639462846BDE8F0418B
:102840000223FEF7FFB92046FEF7EEF904F5005427
:10285000EFE770B44FF00065AD6A03462E6986421B
:1028600006D86C6913449C4202D370BCFFF7CFBFFB
:1028700070BC7047036913F0FE0F0CBF01200020ED
:10288000704738B504460D46FDF760FF38B16369FF
:10289000012B07D12046FFF7EDFF10B1A4690120FD
:1028A0002C6038BD0020FCE74FF000639B6A9868FD
:1028B00070474FF0FF3313B5044601A80193FEF7AC
:1028C00069F820B1019BA3422CBF0020012002B077
:1028D00010BD00207047002070470346184601686D
:1028E00081F3088881F3098840688746FEE74FF442
:1028F0000170FEF76FB9B1F50D7F10B504460FD327
:102900004FF40D72002101F083FA04F5DE7204F534
:10291000AA7104F12C000023BDE81040FEF744BE6C
:1029200040F2052010BD13B50446009101462C303D
:10293000FEF776FEC4F8300218B141F20703984260
:1029400004D1A37823B1E07800F2022002B010BDD8
:1029500040F20120FAE72DE9F04387B00DF10809B4
:1029600004460E4617460021102248461D46DDF853
:10297000388001F04DFA00211C22C8F800102846CA
:1029800001F046FA32463B462146CDF8009004F16C
:102990002C00FEF745FE23789A0744BF6268C8F80A
:1029A0000020DB0709D504F1080304F1240253F8E1
:1029B000041B934245F8041BF9D1237840F20640EA
:1029C000002B18BF002007B0BDE8F0834FF40D7056
:1029D0007047012307B5002200911946FEF7F0FA6F
:1029E00003B05DF804FB826CF0B5531EB3F5887F2D
:1029F00018D8D0E9093CD0E90B47C91A914228BF41
:102A000011464569866B2FB9C768A7EB040E8E4542
:102A100098BF07630C44521AC462826419448B4203
:102A200001D14362F0BDB34234BF644600249A1B17
:102A30002A44125DEA540133F1E72DE9F04F95B0D5
:102A400008910D92036B416A0793C36A0193079B38
:102A5000002B40F0AA80019AC3689B1A089A521A68
:102A60009A4240F2A2800B444FF0FF37D0E90DBAF2
:102A70008568099307FA05F5ED430E954568C36B24
:102A8000AF40FD430F9500250293036C0469039347
:102A9000436C0B950493036804F668250C93119519
:102AA00004F26465436912950C9D0593C5F1080510
:102AB000836A026A13950693D0E906360E9D019F3C
:102AC000B6F1807F05EA070808EB0B1C3CBF13F842
:102AD000015B360234F81C7038BF45EA0222F50A61
:102AE0007D4395424FEA0B1E40F2C380C7F5006656
:102AF00007EB561624F81C60019F079E04F66C6CC9
:102B00003E4312D03E460F9F37400C9E07FA06FE0A
:102B100000294CD1069E013E059FBE5D139F3E419C
:102B20004FF4C067764407FB06CC019EBBF1060F4D
:102B300006F10106019647D80126BBF1030F94BFA9
:102B4000ABEB0B0BABF1030B0096009EB5F1807F56
:102B500038BF13F801EB4FEA460638BF2D023CF8A8
:102B6000067038BF4EEA02224FEAD52E07FB0EFE52
:102B7000964500960CEB06081BD9C7F5006507EBD8
:102B80005515AFB27546009EA8F80070FF2EDCD92F
:102B9000059E009F77542E460131099D8D4240F2DB
:102BA00036830D9D9D4289D831E3089B5CE74E1E1C
:102BB000B2E7009EA7EB57170136A5EB0E05A2EB77
:102BC0000E02BFB20096DEE7069FA1EB0A06514552
:102BD00028BF0027BE46059FBBF10A0F3E4416F8EA
:102BE0000E9034BF03260626ABEB060B01264FF4EE
:102BF000807800964FEA4909009E09EA08070A977B
:102C000008EB06070A9EB5F1807F38BF13F801EB89
:102C100037440CEB470638BF2D023CF8177038BF1D
:102C20004EEA02224FEAD52E07FB0EFE1096009EBA
:102C300096454FEA460600960ED9C7F5006507EBA4
:102C40005515AFB20A9D28EA05087546109E3780D3
:102C5000009EFF2ECED99BE7009EA7EB57170136AB
:102C6000DDF82880A5EB0E05A2EB0E02BFB20096A0
:102C7000ECE7761BA7EB5717B6F1807F24F81C70A2
:102C8000A2EB05020BF1C0093CBF13F8015B360251
:102C900034F8197038BF45EA0222F50A7D4395429F
:102CA0004FEA490C40F20581C7F5006607EB56165E
:102CB00024F81960049E129F0A96039E0BF10C0BD8
:102CC0000496029ECDE902A6B5F1807F3CBF13F8C1
:102CD000016B2D02B7F800C038BF46EA0222EE0AA7
:102CE0000CFB06F6964240F2A3814FF0000ECCF5A5
:102CF00000650CEB55153D8007EB081704374FF0C6
:102D000008094FF0010CB6F1807F38BF13F8018B32
:102D10004FEA4C0C38BF360237F80C5038BF48EA3F
:102D200002224FEAD62805FB08F8904507EB0C0A6B
:102D300040F2AE81C5F5006605EB5616B5B24646C3
:102D4000CC45AAF80050DED3AEEB090E0EEB0C0515
:102D5000BBF10B0F009540F2B382032D94BF4FEAF5
:102D6000C51E4FF49C6E4FF0010598BF0EF5587EBE
:102D7000B6F1807F4FEA450538BF13F801CB05EB6C
:102D80000E0838BF360234F8087038BF4CEA022209
:102D90004FEAD62C07FB0CFC944540F28381C7F523
:102DA000006607EB5616B7B266463F2D24F808704A
:102DB000DED9403D032D3FD905F0010C0D2D4FEA22
:102DC00055074CF0020C00F283814FF00108013FDF
:102DD000C5F1004E0CFA07FC0EF2AF2EE6444FEAA6
:102DE0004E050B95C24665460A970B9FB6F1807F4C
:102DF0004FEA480838BF13F8019B07EB080E38BFAD
:102E0000360234F80EC038BF49EA02224FEAD6290A
:102E10000CFB09F9914540F24E81CCF500660CEBB4
:102E200056161FFA86FC4E460A9F24F80EC0013F34
:102E30004FEA4A0A0A97D8D1079F05F1010A002FE5
:102E400040F03C82019FAF4240F25782BBF1130F2A
:102E500034BF4FF0070B4FF00A0B009F099D02375C
:102E6000B5EB010CB84600F04882BC4528BFBC4613
:102E7000069FA1EB0A05514528BF00273D44019F4D
:102E800067440197A8EB0C070B97069F7F1BBC4577
:102E9000059F0F4400F21C82A5EB0108059D6144CB
:102EA00005EB010C17F808E007F801EBBC45F9D178
:102EB00073E6A7EB5717761B521B24F81970079D72
:102EC000019F3D4303D1012015B0BDE8F08FB6F15D
:102ED000807F38BF13F8015B0CF1180938BF360248
:102EE00034F8097038BF45EA0222F50A7D4395425D
:102EF00050D9C7F5006607EB5616B5F1807F24F868
:102F000009600EF1F00E38BF13F8016BC64438BFEC
:102F10002D0234F81E7038BF46EA0222EE0A7E43C4
:102F200096421FD9C7F5006507EB5515069F24F893
:102F30001E50514528BF0027BC46059FA1EB0A053E
:102F40003D4415F80C50BBF1060F7D54019D88BF20
:102F50004FF00B0B05F1010598BF4FF0090B013144
:102F600001951AE6AD1B921B029ECDF808A0B24651
:102F7000A7EB571724F81E70049EBBF1060F0A96A4
:102F8000039E8CBF4FF00B0B4FF0080BCDE903A64F
:102F9000119F99E6761BA7EB5717B6F1807F24F8AF
:102FA0000970A2EB05020CF1300E3CBF13F8015B77
:102FB000360234F80E7038BF45EA0222F50A7D4326
:102FC000954206D9C7F5006607EB561624F80E6041
:102FD000D2E7761BA7EB5717B6F1807F24F80E7067
:102FE000A2EB05020CF1480C3CBF13F8015B360262
:102FF00034F80C7038BF45EA0222F50A7D43954249
:103000000AD9C7F5006607EB561624F80C60DDE90F
:10301000026702970396AFE7A7EB571724F80C70E7
:10302000049F521B751B029E0297039F0497F1E7B2
:10303000AD1BACEB5C1CB5F1807FA7F800C0A2EB28
:1030400006023CBF13F8016B2D02B7F802C038BF6F
:1030500046EA0222EE0A0CFB06F696420BD9CCF5A4
:1030600000650CEB551507EB08187D804FF0080E36
:1030700008F5827743E6ACEB5C1C921BA7F802C014
:103080004FF0100E4FF4807907F50177AE1B38E64C
:10309000A5EB5515A6EB0806A2EB0802ADB20CF1A4
:1030A000010C4DE6A7EB5717A6EB0C06A2EB0C02A2
:1030B000BFB2013579E6ACEB5C1CA6EB0906A2EBCE
:1030C00009021FFA8CFC08F1010845EA0A05ABE683
:1030D000053FB6F1807F3EBF13F8015B360245EA3B
:1030E00002227608921BD51705F1010E013F05EA71
:1030F00006050EEB4C0C2A44EBD1B6F1807F3CBFA9
:1031000013F8017B36024FEA0C15B4F846C638BFF7
:1031100047EA0222F70A0CFB07F7974204F2446ED3
:1031200040F2AC80CCF500660CEB56161FFA86FC1C
:103130000226B7F1807FA4F846C63EF816A04FEAF3
:10314000460C0EEB46093EBF13F8016B3F0246EA00
:103150000222FE0A0AFB06F6964240F29980CAF560
:1031600000680AEB58181FFA88F8A9F80080B6F131
:10317000807F3CBF13F8017B36023EF81CA038BFAD
:1031800047EA0222F70A0AFB07F797424FEA4C0880
:103190000EEB4C0940F28780CAF5006C0AEB5C1C10
:1031A0001FFA8CFCB7F1807FA9F800C038BF13F874
:1031B000016B3EF818903CBF3F0246EA0222FE0A2D
:1031C00009FB06F696424FEA480C87BFC9F500682E
:1031D00009EB5818A9EB591845F008058FBF1FFADD
:1031E00088F8921B1FFA88F8BE1B6F1C2EF80C8003
:1031F0007FF422AE009CABF10C0B04F589740B94A8
:10320000DDE902A40294049C03940A9C0494B6F1A0
:10321000807F3CBF13F8014B3602C0E906360B9B9A
:1032200038BF44EA02228364019B0262C362029BAC
:103230004162C363039BC0F838A00364049BC0F8D9
:1032400034B04364036B23B9C368019A934298BFB7
:1032500003630899FFF7C7FB436A089A9342836C9C
:1032600007D282690D998A4203D2B3F5897FFFF4B0
:10327000E9ABB3F5897F3CD8002025E6ACEB5C1CBC
:10328000D21B1FFA8CFCF71B45F00105032650E703
:10329000AAEB5A18921B1FFA88F80CF1010C45F0A2
:1032A0000205BE1B61E7AAEB5A1CD21B1FFA8CFC5D
:1032B00008F1010845F00405F71B73E7079FC2E515
:1032C000DDE902A50295049D03950A9D0495C4E5D8
:1032D000B9460CEB070E059F17F80580069F09F805
:1032E000018B0135AF4208BF0025CE45F3D16144C3
:1032F00053E44FF489738364BEE74162E3E52DE94B
:10330000F047D0E9075301278468D0F82C80A74004
:10331000D0F834C0013F066907EA080707EB0C1E26
:10332000B5F1807F36F81E900A4407D2914280F0B2
:10333000DC8111F8014B2D0244EA0323EC0A09FB5E
:1033400004F4A34278D2056B06F66C6658EA0505CC
:1033500019D0D0E900E70125BD40013D05EA080587
:1033600005FA0EF7456AD0F8148005B9856A013D63
:1033700018F80550CEF1080E45FA0EF53D444FF40D
:10338000C06707FB0566BCF1060F20D8012040008E
:10339000B4F1807F375A07D2914280F0A68111F8AC
:1033A000015B240245EA0323E50A7D43AB4229BFC2
:1033B00001302C46641B5B1BFF28E8D90120B4F1C7
:1033C000807F80F02281914228BF00201DE1876B21
:1033D000D0F824C04569BC45ACEB070E2CBF0027D4
:1033E000876A05EB0E0010F807C001204FF48077C4
:1033F0004FEA4C0C07EA0C0E3D187544B4F1807F7F
:1034000036F8158007D2914280F06F8111F8015B88
:10341000240245EA0323E50A08FB05F54000AB4218
:103420002BBF01302C46774627EA0E0724BF641BCA
:103430005B1BFF28DCD9C1E7281B0CF1C00CB0F1E5
:10344000807FA3EB04034FEA4C0436F81CC007D27C
:10345000914280F04A8111F8015B000245EA0323A2
:10346000C50A0CFB05F5AB4280F0A08002204FF0AE
:10347000000E06F2646CB5F1807FBCF8008007D2C4
:10348000914280F0328111F8014B2D0244EA03236E
:10349000EC0A08FB04F4A34280F0EB800CEB071C61
:1034A00000270CF1040C4FF008094FF001084FEA17
:1034B0004808B4F1807F3CF808A007D2914280F020
:1034C000148111F8015B240245EA0323E50A0AFB93
:1034D00005F5AB4229BF08F101082C46641B5B1BB4
:1034E000C845E4D3BEF1030F3FF669AFA7EB090768
:1034F0004744032F88BF4FF49C674FF001059CBFE2
:10350000FF0107F558776D0006EB050CB4F1807FDD
:103510003CF807E007D2914280F0E78011F801CB38
:1035200024024CEA03234FEAD42C0EFB0CFC634527
:1035300029BF01356446A4EB0C04A3EB0C033F2D1B
:10354000E1D9403D032D7FF63AAF0D2D4FEA5507E7
:1035500000F2B18005F0010C013F4CF0020CC5F106
:1035600000450CFA07FC05F2AF25654406EB45065D
:103570004FF0010C4FEA4C0CB4F1807F36F80CE0B0
:1035800007D2914280F0B18011F8015B240245EA34
:103590000323E50A0EFB05F5AB4231BF2C46641B45
:1035A0005B1B0CF1010C013FE4D108E7401B3444E4
:1035B000B0F1807FB4F818C0A3EB050307D29142A5
:1035C00080F0938011F8015B000245EA0323C50AED
:1035D0000CFB05F5AB4222D20EF1F00EB5F1807F67
:1035E00036F81E4006D291427FD211F8010B2D020F
:1035F00040EA0323E80A6043834208D2B0F1807FA7
:1036000071D2914234BF03200020BDE8F0872D1A0B
:103610001B1A03204FF00C0E06F6682C2BE7401BFC
:10362000B0F1807FB4F830C0A3EB050306D291421D
:103630005BD211F8015B000245EA0323C50A0CFBCB
:1036400005F5AB42E5D3401BB0F1807FB4F84840AC
:10365000A3EB050306D2914247D211F8015B0002A9
:1036600045EA0323C50A6543AB4224BF5B1B451BE8
:10367000CFE72D1BB5F1807FBCF80280A3EB0403DC
:1036800006D2914231D211F8014B2D0244EA0323B4
:10369000EC0A08FB04F4A34205D20CEB071707F56C
:1036A000827C0827FFE61B1B10274FF480790CF55E
:1036B000017C2C1BF9E6053FB4F1807F06D29142D4
:1036C00013D211F8015B240245EA032364081D1B91
:1036D000ED0F013D2540013FA3EB0503ECD104278D
:1036E00006F2446644E703208FE700208DE70023BD
:1036F0000122C0E90B33C0E91232436283650265DF
:1037000070472DE9F74F9846002704469DF8303062
:10371000D8F80060C8F8007000938B461546FFF794
:1037200062F90D9B1F70A36CB3F5897F09D1236AE1
:1037300013B901230D9A1370206A003818BF0120B5
:103740001EE0E36C8BB1A36D5EB3042B1BD994F820
:103750005C30002B40F0D780D4F85D20E36412BACF
:1037600022624FF0FF32A365E261636A5B4555D385
:10377000A36CD3B9236AF3B9042300200D9A137004
:1037800003B0BDE8F08F5A1CA26515F8012B234445
:1037900083F85C20D8F80030013E0133C8F80030CF
:1037A000D1E7042BD3D80323E7E7009B002B40F09D
:1037B000A7800223E1E7009B002BFAD00123226DB2
:1037C0009AB1D4E9002111444FF440728A4000219B
:1037D000206902F236728A4222D80122C4E91022FC
:1037E000C4E90E22002262632265A76D002F68D112
:1037F000132E1BD943B3324629462046FFF77FFDDF
:10380000F0B93246294604F15C0000F009FBA665D8
:10381000D8F800303344C8F80030C4E70023CEE7BE
:103820004FF4806720F811700131D4E73246294601
:1038300020460193FFF763FD019B0028E1D00BB107
:1038400002285DD12A4602E0A6F114022A44594614
:103850002046A561FFF7F1F8002854D1A369D8F8F4
:1038600000205D1B2A44C8F80020761B1D465AE73D
:1038700015F809100137D15509F10109132F25D980
:10388000A76504F15C0A93BB524659462046C4F82A
:1038900018A0FFF7D2F8B0BBA369A3EB0A039F42BD
:1038A00036D3FA1A914533D3D8F8001009EB030246
:1038B000D31B19443744C8F800102B44BE1AA06526
:1038C000D4E74FF0000904F15B02D7E7B145CFD14F
:1038D00004F15C0A3A4651462046A7650193FFF77A
:1038E0000EFD019B88B9D8F800304B4493E73A4667
:1038F00051462046FFF703FD0028F4D00228C3D02C
:1039000002230D9A137001203AE7002BBCD0F5E793
:103910000B2035E72DE9F04F89B0DDF848809A4655
:103920009DF84C3004460493D8F800308B4602933F
:103930000023164617681360C8F80030029B149ADB
:103940000793D4E909318B4204BF00236362656A9F
:1039500020464B1BBB4232BF0023049B7919CDE9A3
:103960000032524607ABFFF7CCFE079A029B616913
:103970009B1A0293D8F8003003901344C8F8003023
:10398000636A5846A3EB0509294492444A460593C5
:1039900000F046FA059BCB44ED1A33682F444B44A4
:1039A0003360039B23B9B9F1000F01D0002FC5D1BB
:1039B000039809B0BDE8F08F10B504464B6808467F
:1039C000216998470023236110BD70B54FF44075FD
:1039D0001646D1E9003213449D400369044605F2BE
:1039E000367513B1436DAB420ED031462046FFF71A
:1039F000E3FF30463368690098472061B0FA80F0F1
:103A000040096565400070BD0020FCE738B50446FC
:103A10000D46FFF7D1FF6B68284661699847002380
:103A2000636138BD042A01D804207047D1F8013001
:103A3000B3F5805F38BF4FF48053C3600A78E02A43
:103A4000F2D80923B2FBF3F303EBC301521AD2B24B
:103A500002600522B3FBF2F2826002EB82029B1A43
:103A6000DBB243600020704770B5D1E90152AA4231
:103A700005D290F840302B449B1A402B10D90020DF
:103A800012E00A6890F84040D65C90F8412001337B
:103A9000224402F03F02013486548B6080F840409B
:103AA0008B689D42EDD8012070BD2DE9F84390F858
:103AB00040C017469E46D1E90123089DD21A6244B0
:103AC000954204460E469DF824909DF828800AD918
:103AD000FFF7CAFF002867D1142341F2020084F8DF
:103AE0004630BDE8F883754555D8002394F840204A
:103AF0000AB19D4235D1D6E90121914201D29D42C0
:103B000041D89D424DD129463846D4F88820FEF749
:103B100079F9C4F88800B9F1000F04D02A46394673
:103B2000E06C00F070F894F84330B8F1000F06D064
:103B30008BB12B463A463946A06C00F053F894F806
:103B4000433043B1E36DA26D2B449342E36524BF40
:103B5000002384F84330636D41F203002B44636516
:103B6000BFE794F84120A25CFA5494F84120013355
:103B7000013202F03F0284F8412094F84020013ADB
:103B800084F84020B2E73268525CFA54B2680133DC
:103B90000132B260AFE741F20100142384F84630ED
:103BA0009FE741F20200F8E700209AE749BA89B29C
:103BB0004840C0F30312424013B283EA0233580173
:103BC00000F4FF509BB25840704738B50446451882
:103BD0001046AC4200D138BD014614F8010BFFF786
:103BE000E5FFF6E71FB50C46194600F14803CDE99D
:103BF0000142009300F1440200F158032030FEF727
:103C0000FFFC04B010BD00F00CB8014600F016B87F
:103C10006822002100F0FCB803460020C3E9000040
:103C2000704707B500F128030190009300F10803E5
:103C30000020FEF7FBF903B05DF804FB02460B46DB
:103C400000F128010830FEF74FBAFEE770B50546CF
:103C500014460E4600F02BF92B685C4034405C4063
:103C60002C60BDE8704000F01DB9036BDA0702D587
:103C700003695B06F9D4704710B5FFF7F6FF012220
:103C8000044600F500531A63236B9B07FCD40B79A1
:103C90004A881B0243EA82438A7A13434A7843EAFA
:103CA0008213CA7A43EAC2130A7B43EA42134A7B6D
:103CB00043EA02138A7B43EAC203CA7B43EAC22374
:103CC0008A7943EA0243CA7943EA424301226360A4
:103CD00004F580531A630A780AB90223E3600023CB
:103CE00063624B79087A1B01497A43EA80030B43EC
:103CF000A3600AB10123E36010BDB0F5802F22D08C
:103D000010D8B0F5003F20D007D818B3B0F5803FE9
:103D100008BF482018BF01207047B0F5403F08BFDA
:103D20002C20F7E7B0F5302F11D007D8B0F5E02FF1
:103D30000FD0B0F5202F08BF1020EBE7B0F57F0FB4
:103D400008BF0620E6E74B2070472A207047112065
:103D5000704721207047436813B9416070475B6822
:103D60005A68012AFBD159607047836813B9816092
:103D700070475B685A68012AFBD15960704724225A
:103D8000002100F045B870B515460E4624220021EA
:103D9000044600F03DF825F04003802B02D0B5F535
:103DA000807F08D12046314640F8045BEA0800F0E5
:103DB00037F8002070BD6FF01F00FBE701390244A7
:103DC00010B5904201D1002005E0037811F8014FB1
:103DD000A34201D0181B10BD0130F2E7884210B594
:103DE00001EB020402D98442234607D8431EA142B4
:103DF00008D011F8012B03F8012FF8E7024401461F
:103E00008A4200D110BD13F8014D02F8014DF7E7C9
:103E100002440346934200D1704703F8011BF9E7BF
:103E20000A44431E914200D1704710B511F8014B6E
:103E3000914203F8014FF9D110BD00004FF48062A8
:103E4000024B9A66BFF34F8F0020704700900040EE
:103E50004FF48062014B00209A66704700A000403A
:103E600008B5C0B14FF480620C4B9A66BFF34F8F18
:103E700000F02AF84FF098435A6CD202FCD54FF468
:103E80008062586D064B10F470209A6604D0BDE82D
:103E90000840FFF732BF212008BD00BF009000405E
:103EA00000A0004010B962B6BFF36F8F7047EFF308
:103EB000108072B67047C369032B9FBF00EB83026B
:103EC0000133D160C3617047C369042B14D84FF02C
:103ED0009842116CC902FCD504339B00136501683C
:103EE000103B11604168116050F8081F11604FF0DD
:103EF00098420344984200D1704750F8041F116063
:103F0000F8E70000000000000000000000000000D2
:103F100000000000000000000000000000000000A1
:103F2000F8B500BFF8BC08BC9E467047F8B500BFA6
:103F3000F8BC08BC9E4670470000000053280008EB
:103F400000000000F10600080D0A4765636B6F2052
:103F5000426F6F746C6F616465722076582E595988
:103F60002E5A5A0D0A312E2075706C6F61642067CD
:103F7000626C0D0A322E2072756E0D0A332E20658A
:103F8000626C20696E666F0D0A424C203E20000D67
:103F90000A4661696C656420746F20626F6F740DEE
:103FA0000A000D0A66696C65206572726F722030B6
:103FB00078000D0A626C6F636B206572726F7220FD
:103FC0003078000D0A53657269616C2075706C6FF2
:103FD00061642061626F727465640D0A000D0A539A
:103FE000657269616C2075706C6F616420636F6DC0
:103FF000706C6574650D0A000D0A626567696E2054
:1040000075706C6F61640D0A00B814B6F1E0CFF3FF
:10401000ADB7DD25C9FA79B71300000013B779FAF7
:10402000C925DDB7ADF3CFE0F1B614B80102000049
:10403000000000004C4200004000000001000003AE
:104040000000000000000000000000000000000070
:104050000000000000000000000000000000000060
:1040600000000000000000000000000007B0CD5E6E
:104070000200000001000003504200000060000840
:1040800000000808F1041000D3280008D728000811
:1040900099070008F72800082729000800000000F9
:1040A00057290008CD29000800000000ED0900088C
:1040B000E50900080400000700000D1013001A2095
:1040C0002630384050000000FD0707FD611200084F
:1040D000911200085113000835130008EB17A603CE
:1040E0000201000003000000FA0606FA0F040000B7
:1040F00003000000F40A0AF40505000001000000B6
:10410000EB17A65E0A06000001000000F50909F59C
:104110000307000001000000F60808F6060800008A
:1041200000000000FE0101FE080800000000000081
:10413000FD0303FD0C08000000000000FD0707FD63
:104140001308000000000000F90707F9100900003B
:1041500002000000F30B0BF3110A00000300000043
:10416000F70A0AF7120B000003000000FC0404FC2D
:104170000D0C0000030000008000000000000000A3
:10418000000000000000000000000000000000002F
:10419000000000000000000000000000000000001F
:1041A000000000000000000000000000000000000F
:1041B00000000000000000006A09E667BB67AE85EA
:1041C0003C6EF372A54FF53A510E527F9B05688CF9
:1041D0001F83D9AB5BE0CD19E4410008606000208B
:1041E0001A000000F00F1003000000005E5E0020C7
:1041F000130000000900000000010000020200009E
:1042000013000000F00F1003000000005E5F0020AC
:10421000130000000900000000020000010100007E
:10422000D3FFFFFFF07F1030DE5D002000000000B4
:104230000000000000C00540290000003511000802
:0C4240006D11000815020008ED010008D7
:1060000008050020D56F0008F1AF0208F1AF0208C3
:10601000CBBF0208F1AF0208F1AF0208F1AF0208EE
:10602000F1AF0208F1AF0208F1AF02080113030853
:10603000F1AF0208C444030891120308933803081F
:10604000F96E0008F1AF0208F1AF0208F1AF0208E3
:10605000F1AF0208F1AF0208F1AF0208F1AF020898
:10606000F1AF0208D58F0208F1AF0208F1AF0208C4
:10607000F1AF0208F1AF0208F1AF0208F1AF020878
:10608000F1AF0208F1AF0208C5B90008F1AF02088C
:10609000F1AF0208F1AF020859900208F1AF02080F
:1060A000F1AF0208F1AF0208FD730008DD730008CC
:1060B000F1AF0208F1AF020899630108496E0108C7
:1060C00001DF0208FDDE02080966010817DF020889
:1060D00005DF0208196E010809DF0208AD6E01082C
:1060E000E96E0108F1AF0208F1AF0208F1AF020852
:1060F000F1AF0208AFBE0208F1AF0208F1AF02082B
:10610000F1AF0208F1AF0208F1AF0208F1AF0208E7
:10611000F1AF0208F1AF02085D8A0208F1AF020890
:10612000F1AF0208F1AF0208F1AF0208F1AF0208C7
:10613000F1AF0208F1AF0208F1AF0208F1AF0208B7
:10614000F1AF0208F1AF0208F1AF02089DA7000805
:10615000F1AF0208F1AF0208F1AF02080D4D0108DE
:10616000F1AF0208F1AF0208F1DE0208F7DE020823
:10617000F0B5114A114C124E00F00105E3695F07BA
:1061800013D40DB9334213D103EA00078F4207D16C
:106190000B4A1A40002A0CBF00206FF00100F0BD2E
:1061A000013AEBD16FF00200F9E74FF0FF30F6E76C
:1061B0006FF00100F3E700BF8096980000000350E5
:1061C000020001000B4B70B5D96911F480310DD17B
:1061D00001244FF48072084E084DF46020462C6470
:1061E0001A61FFF7C5FF3464EC6070BD6FF0010009
:1061F000FBE700BF000003500010035000200350D5
:106200004FF4803238B50E4B0E4C9A66E56941F674
:10621000713315400122E3630B4B0021DA60022346
:10622000606121202361FFF7A3FF10B92120FFF750
:106230009FFF0122054BDA600DB10023E36338BDF7
:106240000090005000000350001003500020035045
:1062500070B5134C6061E3695B071ED40E4656F8B7
:10626000043B8D18A361AE420BD1042300212120F1
:106270002361FFF77DFF58B9BDE870402120FFF78B
:1062800077BF08210846FFF773FF10B1042323618D
:1062900070BD56F8043BA361E5E74FF0FF30F7E728
:1062A000000003502DE9F84315464FF48032184B97
:1062B00089469A6603F51C33DF690646174041F6A6
:1062C0007132DA63012203F58053DFF84C80DA6023
:1062D00055B9284601220F4BDA601FB10022A3F501
:1062E0000053DA63BDE8F88306F5005404EA0804B5
:1062F000A41BAC4228BF2C46494622463046FFF735
:10630000A7FF0028E6D12644A1442D1BE0E700BFEB
:10631000009000500020035000E0FFFF000000004C
:10632000000000000000000000000000000000006D
:106330002200000005E601081900000079F80108B4
:1063400015000000ED18020810000000C9FF010848
:106350001200000059E301081300000089E8010859
:1063600011000000E9E701080E000000ADF7010888
:106370000D0000007502020805000000A50C0208CF
:10638000040000002D0D02080F000000A5DD01082B
:106390001A000000151302080B0000003FFE02085F
:1063A0000A000000D5E501080900000055F90108C0
:1063B000080000007DE50108030000004501020817
:1063C00002000000D7FF020806000000692F020843
:1063D00007000000B52702080100000007010308BC
:1063E00023000000552F020828000000F7000308D2
:1063F00027000000E700030826000000A3FC0208B5
:1064000020000000F9FD01081F00000081000208C3
:1064100016000000C5F4010828000000FB00030876
:1064200027000000EB0003082600000037FD0208EB
:106430002A00000033FD020802000000DDFF020810
:106440002900000031FD02082300000069E1010875
:10645000010000000B0103080300000035FD0208E5
:10646000000000006BFC020807000000F1CA0008F1
:10647000BF0000009BC90208A800000053C9020821
:10648000490000009FC902080A0000009DC90208D7
:106490006B00000061CD00086A00000029CD0008F3
:1064A00069000000E1D70008D6000000E9C6020834
:1064B0003C000000F1E0000827000000EDC30208E6
:1064C0001C000000FDE100089800000039E1000810
:1064D00065000000A1C90208D400000095C90208A7
:1064E000D3000000D5E00008D2000000B9E00008A9
:1064F000BD0000008DC802080B00000095E00008F8
:1065000008000000C7C302080600000051E00008B0
:10651000600000004DD5000805000000DDC802083D
:10652000E8000000CFC80208E7000000BFC802086A
:10653000DD000000ADC80208DC0000009DC80208B4
:10654000DB00000039E00008DA0000000DE0000880
:1065500002000000E1DF0008A5000000FBC80208FF
:10656000A600000087C60208BE000000D9D40008BB
:10657000A40000000DCD0008A000000059D80008BC
:10658000A200000079D40008030000002DDF0008FD
:106590000900000009DF000815000000C9DE00083E
:1065A00093000000B9CC00089200000075CC0008F0
:1065B0009000000095C302088000000001E300087D
:1065C0006300000045E30008620000003DCC0008C5
:1065D0006100000005CC00085600000099DE0008AC
:1065E00054000000E9D300085700000079D30008E8
:1065F00055000000F9D2000858000000F9DD00083D
:10660000510000006DDD0008470000008DD2000839
:106610004F000000F9D10008460000007DD10008BD
:106620005F000000ADC702085E0000007DC70208E1
:1066300050000000C5DC00084D0000007DE60008A9
:106640003F00000025E600084B000000E5E50008DB
:106650004A00000041E50008420000006DDC00082F
:10666000410000002DDC00086800000049CF000850
:1066700048000000DDCE00085300000025D10008CE
:1066800028000000FDDB00082A00000029DB0008CC
:106690002C00000031C8020829000000ADC2020829
:1066A0003D000000CDDB00082E0000005DE1000889
:1066B000240000006DDB000823000000FDDA000864
:1066C000220000006BC8020821000000FFC702087A
:1066D00020000000BDDA00086C0000008DE4000816
:1066E000AC0000007DE30008AB00000061D90008A9
:1066F000A900000039D60008160000002BC30208CC
:1067000014000000B1D8000813000000B1D5000843
:1067100012000000B1D0000810000000E9C9020812
:106720003A000000BDCB000839000000FFC202089B
:106730003B00000055C902083800000055CB000896
:1067400037000000D1C20208D900000015E100089E
:10675000DF000000F9C90208DE00000009CA0208D3
:10676000D8000000F5EA0008D7000000B1EA0008F0
:10677000013800D0FCE77047F7B5044600782AF0EE
:106780000FFB18B1E3780BB124F08EFB4E4827F0D5
:1067900022FC002022F0CCFD4C4B002118604C481C
:1067A00010F024FC4B4F8446386000B9FEE74A4E97
:1067B0000FCC35460FC50FCC0FC5102294E803004F
:1067C000464B85E8030083F81F23012183F820232B
:1067D000604683F8212383F8222383F8232383F858
:1067E000242383F8252383F8262383F8282383F89A
:1067F000272383F84A2383F84B2383F8472383F81E
:106800001E2309F0E7FA23F0FBF8B6F90A30002856
:106810004AD0C82B01DDC82373817378304A022B1C
:1068200028BF02232F49137238684FF48073002267
:1068300027F009FD23F0F4FD01223868114627F006
:1068400089FC1FA3D3E90023CDE9002338684FF06A
:10685000FF324FF0FF3327F07BFC96F82000224CEC
:10686000003818BF012023F0EFFDB6F90820B6F973
:1068700006103379307823F095FD1C4B5B6818784F
:1068800023F0D6F80122386811462AF0E3FB0022F3
:106890001546174922F098FF904209D82CF04CF881
:1068A000144B186003B0F0BD8C2BB6DD8C23B3E71E
:1068B00001F8015B24F8025B0132EBE7AFF30080E3
:1068C000088D015522020000690345EC386D002057
:1068D000DC950020EC9500205857002000E100E0F6
:1068E000E0560020E0550020D26D0020F0950020F9
:1068F000058F0020346D00200348044B834202D0F2
:10690000034B03B118477047349700203497002099
:1069100000000000064B0749C91A891048BF013121
:10692000491003D0044B0BB101481847704700BF12
:1069300034970020349700200000000010B5064C6A
:10694000237843B9FFF7D8FF044B13B10448AFF3E2
:1069500000800123237010BDDC6D002000000000CA
:1069600074AC030808B5054B1BB105490548AFF3E6
:106970000080BDE80840FFF7CDBF00BF0000000069
:10698000E007002074AC0308A3F5803A704700BF0D
:10699000174B002B08BF134B9D46FFF7F5FF002157
:1069A0008B460F461348144A121A24F09FFA0E4BD6
:1069B000002B00D098470D4B002B00D098470020AB
:1069C000002104000D000D48002802D00C48AFF350
:1069D000008000F029F82000290026F024F900F0BA
:1069E00011F800BF000008000000000000000000D7
:1069F000080500200805002060910020000000002C
:106A00000000000008B5064B044613B10021AFF3A7
:106A10000080044B1B6803B19847204624F0E7FA36
:106A2000000000003009002070B50D4D00260D4C0F
:106A3000641BA410A64209D10B4D00260B4C2DF06F
:106A40000FFD641BA410A64205D170BD55F8043B90
:106A500001369847EEE755F8043B01369847F2E7D0
:106A60002C9700202C9700202C9700203097002096
:106A700008B5044825F011FA25F0DFFBBDE8084011
:106A800000F008B8EC460308014825F006BA00BF3C
:106A9000EC4603082DE9F04F544E97B0354609AC4B
:106AA0000FCD0FC42B6806F1140523600EAC0FCD7B
:106AB0000FC495E80F00DFF84C8184E80F004C48C4
:106AC00025F0EBF9404625F0E8F94FF48073494F83
:106AD000ADF83C30484B38460B9309A90EAB0D93EB
:106AE00003F052FA0421B6F834B00DEB0100012294
:106AF000ADF804B000F092FBB6F836A000220121F8
:106B000002A8ADF808A000F089FBB6F83890012281
:106B1000042103A8ADF80C9000F080FB758F0122D2
:106B2000042104A8354CADF8105000F077FB344B2D
:106B30004FF44870C4F8F8344FF00213C4F8F4343A
:106B4000A3F58033C4F8FC341C23C4F8E43404F007
:106B500055FF08A8ADF8205000F0BEFB142004F04B
:106B60004DFF08A8ADF8205000F08CFB232004F066
:106B700045FF08A8ADF8205000F0AEFBB92138461B
:106B800025F056F808A8ADF8205000F07BFB002255
:106B900005A81146ADF814B000F040FB002206A88D
:106BA0001146ADF818A000F039FB0122002107A81A
:106BB000ADF81C9000F032FB0122002108A8ADF8CE
:106BC000205000F02BFB384603F03EF900234046EE
:106BD000C4F8E434C4F8F834C4F8F434C4F8FC3429
:106BE00025F05EF917B0BDE8F08F00BF88440308B8
:106BF000EC46030800000A50E070720000C0035029
:106C000002000300F04603084FF000639B6A03F1A3
:106C10007842B2F5C04F03D21968064A914203D0B8
:106C20000023037083607047012202709A689B6999
:106C30004260F7E707B0CD5E024B034A1A6025F0C9
:106C400038B900BF0000002002020FF073B54F4BAF
:106C500004461A781AB102221A7002B070BDCDE94A
:106C600000220028F9D001261E702CF0BFFC484DF0
:106C7000484B18600CF062FF2B785BB901F0AAFE5C
:106C800040B945480823454A4549006801F03CFDA4
:106C900000B92E70434B5A6E62619B6E424AA361EB
:106CA0004FF480439366414B5968E16140499960D4
:106CB000196E2160596E6160D3F87011A160196C72
:106CC000E160596C21613B49086C1864496C596456
:106CD000012151661B6E9C0441D5374AD368D80701
:106CE000FCD4364B1A68531C3ED04FF480139340AB
:106CF000334A13664FF400730426314C266623662C
:106D000024F03EF901300DD024F03AF940F201139D
:106D1000984207D04FF4005323664FF48043236614
:106D2000C4F870610823264C684623664FF48053EC
:106D300023664FF0006323664FF4000301A96366E6
:106D400024F002F9009B2366019B63662B78002BDD
:106D500083D0124B1A6822665B6863667DE7194A26
:106D6000D368D907FCD4BCE7174B1B78002BC1D1E3
:106D70004FF400720C4B5A6603F5A6235B68002B98
:106D8000B8D14FF480120E4B1A66B3E7DE6D0020C7
:106D9000DF6D002054090020B09300205809002026
:106DA00000710800008000500090005000800044F6
:106DB00055CEAC0000C00054000004407C9300207D
:106DC0000090004400000450DD6D002070B5224D9D
:106DD00004462E78012E02D001232B7070BD0028AE
:106DE000FCD024F0CDF801300BD024F0C9F840F2EB
:106DF0000113984205D0194B194A5E66D368DE0725
:106E0000FCD42268174B1A6662685A66A268C3F8F7
:106E10007021E2681A6422695A64E269D00744BFAB
:106E200000229A60104B1A68013207D10F4A12787B
:106E300022B90F494968C90748BF1A6062690D4BFA
:106E40005A66A2699A660CF081FE0B4B18682CF00A
:106E5000C8FB0023C1E700BFDE6D002000900040AA
:106E600000000440008000447C930020DD6D002081
:106E700000C005500080005054090020F8B54FF0C4
:106E80000066B36A03F17842B2F5C04F26D21A68A1
:106E9000144B9A4222D1144D2C7814F0FD0402D0E8
:106EA00000242046F8BD4FF480371048FFF7CEFE8F
:106EB000204603F0F5FE0E4B2046DF6003F0D4FEC3
:106EC0000C4B1F61B36ADB69984704460748FFF71C
:106ED0007DFF002CE5D101232B70E1E74FF4817495
:106EE000DFE700BF07B0CD5EDD6D00203409002074
:106EF00000A000440090004413B5204B1B7803B958
:106F0000FEE700231E4CCDE900336A4608231D49E5
:106F1000206801F0F9FBF8B91B4AD2F84031D2F8E9
:106F200040211F2B4FF0010311D9203A9340019AC1
:106F30001A43019208236A461249206801F0A0FB17
:106F4000124B134A1A6024F0B4FF02B010BD9340F4
:106F5000009A1A430092EDE72D28F1D10A4AD2F89F
:106F60004031D2F840211F2B4FF0010385BF203A5A
:106F700093409340019398BF0093DBE7DE6D0020C0
:106F8000B093002000710800008000440000002041
:106F90000B020FF0BFF34F8F0549064BCA6802F48E
:106FA000E0621343CB60BFF34F8F00BFFDE700BF2C
:106FB00000ED00E00400FA050348044A0449121AEF
:106FC000921024F016B800BF70610008306300080A
:106FD0006091002008B500F02FF8FFF7EDFF124B8D
:106FE00012498B4212D30020114B12498B4218D305
:106FF000FFF7CEFC186850F82240586840F822404D
:10700000013298688242F5D30C33EAE70022F8E7B0
:107010001C6844F8220001325C68A242F8D30833AD
:10702000E4E70022F8E700BF7CAC030888AC030863
:1070300088AC030888AC03084FF48041124B134A14
:1070400070B59A60D3F88820114D42F47002C3F8ED
:107050008820104A05F5005491664FF0FF322266F1
:107060000D4A62660222C3F8D020BFF34F8FBFF3F0
:107070006F8F4FF44036002003F012FE0020E660D0
:1070800003F0F2FD2E6170BD00ED00E0006000082D
:1070900000800044009000507FFF7F01054B186086
:1070A000054B1B6F03F00703032B01D12AF064B9D2
:1070B000704700BF8C93002000800050002307B56C
:1070C0002948019324F0E9FE4FF440730122042182
:1070D0006846ADF8003000F0A1F80122234B0520EE
:1070E000C3F8442401A92CF013FB002839D1204B0C
:1070F000D3F8F02042F00102C3F8F020D3F8FC20CE
:1071000042F08072C3F8FC201A4AA3F55D431A606E
:10711000019B194A03F5D52303F2FC43B3FBF2F3B9
:10712000164A013B13610223C2F8F0304FF480731A
:10713000C2F804334FF06043114AC3F8B02F114A2C
:10714000C3F8802ED3F8002E42F48072C3F8002ECC
:10715000FF2283F82020D3F8002E22F48072C3F897
:10716000002E03B05DF804FBEC46030800D003508A
:1071700000ED00E0FF030040F8590D00000004E0BE
:1071800055CEACC5090001002DE9F04104460C259F
:107190004FF00108124E0CB314F001000BD0002088
:1071A00024F0010405FB00625768002FF3D09168BA
:1071B000C0B2B847EFE72246013020284FEA52021A
:1071C00001D0D307F8D508FA00F20F2824EA020408
:1071D000E8D9103805FB0062B432E5E7BDE8F0817C
:1071E0006009002008B50C4824F057FE1A2003F06F
:1071F00049FD28B11A2003F053FD1A2003F034FD95
:107200001B2003F03FFD28B11B2003F049FD1B208C
:1072100003F02AFD002008BDEC4603082DE9F041EB
:107220000E461746054618B30F2923D80378E3B155
:10723000013BDBB2022B1DD8104A32F813306A78BA
:10724000D340DB0716D50E4BD3F81043A4B92CF06E
:10725000CDF980463A462846314603F067F9404664
:107260002CF0BFF92046BDE8F08140F2FF73E6E75D
:107270002224F7E72124F5E70224F3E71445030865
:1072800000C0035010B50446E8B10378C3B1013B18
:10729000DBB2022B19D80E4A32F813306278D34091
:1072A000DB0712D52CF0A2F90122637821789A40ED
:1072B00030235943074B5A502CF093F9002010BD4E
:1072C00040F2FF73EAE72220F9E72120F7E700BF49
:1072D0001445030840D0035010B50446E8B10378C4
:1072E000C3B1013BDBB2022B19D80E4A32F813307E
:1072F0006278D340DB0712D52CF078F9012263784D
:1073000021789A4030235943074B5A502CF069F9A1
:10731000002010BD40F2FF73EAE72220F9E72120A8
:10732000F7E700BF1445030840E0035010B50446DA
:10733000E8B10378C3B1013BDBB2022B19D80E4A86
:1073400032F813306278D340DB0712D52CF04EF9B7
:107350000122637821789A4030235943074B5A50D1
:107360002CF03FF9002010BD40F2FF73EAE7222025
:10737000F9E72120F7E700BF1445030840F0035068
:1073800038B50D46044618B311B30378EBB1013B91
:10739000DBB2022B1ED8104A32F813306278D34089
:1073A000DB0717D52CF022F930222378534303F161
:1073B000A04303F570331B6C6278D34003F00103E4
:1073C0002B702CF00EF9002038BD40F2FF73E5E77A
:1073D0002220F9E72120F7E71445030808B503F058
:1073E0009BF8054B00F0553020F05020C3F82004E6
:1073F000BDE80840FFF7C8BE00E0035008B503F041
:107400008BF8054B00F0AA3020F0A020C3F8200430
:10741000BDE80840FFF7B8BE00E0035013B50446CE
:107420000A4824F03AFDA2780421B2FA82F22378C5
:1074300052098DF8043063780DEB01008DF80530AA
:10744000FFF7ECFE002002B010BD00BFEC460308C1
:107450002DE9F04F144606460D469B46C36B87B098
:1074600001225B6902A960689847F36B01225B699E
:1074700003A92846984702A824F06CFA074648B1A9
:107480000023A37563754FF0FF33A360002007B09E
:10749000BDE8F08F03A824F06AFA0123A375237EC8
:1074A00004EBC303DD611F846368AB420ED120602F
:1074B00003A824F07EFA4FF0FF332075A360237DEC
:1074C000043B022B26D80023A375DFE723681A1A92
:1074D00053425341A37503A824F06BFA237D8342E2
:1074E00018BFA77503A824F046FA074602A824F09F
:1074F00042FA874218BF002303A818BFA37524F0DF
:1075000042FA074602A824F03EFA87421CBF002335
:10751000A375D4E703A824F02EFA80B1F36B0222FE
:1075200028465B6904A9984704A824F033FA034667
:10753000207D032839D8DFE800F03838040903A893
:10754000F3E7CC22237E04EBC3031A8401F0BAFADA
:10755000109B187003A8277E24F001FA04EBC707DC
:1075600087F82200237E03A804EBC303B3F820901E
:1075700093F8227024F0FFF9804603A824F003FA60
:107580008246B8F1000F15D0F36B022228465B69E2
:1075900004A9984704A824F0C2F96075637D6BB90B
:1075A0000023A3754FF0000838E0227E04EBC202EE
:1075B0001384CBE703A824F09DF9EEE794F8168036
:1075C000B8F1000FEED0B9F1000F09D1DFB10123FE
:1075D000627EE375002A44D19F4218D1677614E099
:1075E000736C05EB0A02594285EA020008421CBF8F
:1075F0000021A175591E0A409B1A9945D0D8A37D38
:10760000002BE3D1CEE7E37D43B94FF000084B46B2
:1076100052462946304623F08EFEA060A27D12B16C
:1076200023694B4423611449237E097899421ED96A
:1076300001332376BBF1000F1BD0D2B1E37DC3B180
:10764000B8F1000F15D1032F13D0A1684B1C10D037
:10765000109B2246009330460123FFF7F9FEA075E8
:1076600007E0012FDAD0032F08BFA376CDE7002370
:10767000A375A07D0BE700BF3C4503082DE9F04F43
:107680000E46984600238BB004464FF0FF3110465B
:1076900017468DF8133001F0FFF9B6F5801F3BD384
:1076A000B21C53D1E56A6B1C57D12046616A23F0A6
:1076B00088FD0546B31C18BF0123DFF81091019324
:1076C000636A626C0293236805A902FB053AE36BC7
:1076D00005225B695046984705A824F0D6F924F0A6
:1076E000F9F9504624F001FA4FF0000B82460146AA
:1076F0004B1C05D0636C81EA0A025B42134232D014
:107700002946204623F05DFD029BAB424DD0BBF1E4
:10771000000F4DD10546D3E7314605AA04F1080014
:1077200024F066F80146481C10D0384601F0B4F940
:107730000122394620460DF1130323F04EFE28B1F5
:107740009DF8133088F80030002003E0237C002BE4
:10775000A8D12D200BB0BDE8F08F2368ED1A636C23
:10776000B5FBF3F5A6E7484601F096F90DF11303D2
:1077700049462046019A23F030FE034690B1B21CE0
:1077800003D0D9F80020B2420CD19DF81320039306
:107790000D4B88F8002049461A68384625F0DDFD73
:1077A000039B9B46D9F80810A2E7BBF1000FD0D08D
:1077B000B6F5801FC8D2314698F800307A6804F1D7
:1077C000080001F097F8BFE7384503081C0E0020B9
:1077D0002DE9F3410446174698460E46194D816A35
:1077E000E36A8B422AD04B1C18E0284601F054F97A
:1077F0000122294620460DF1070323F0EEFD30B1AA
:107800004346294620469DF80720B847B0B1A968ED
:107810004A1C05D0012E0AD0E36A9942E5D10DE059
:107820006968204623F05AFD012E0146D8D16B68C5
:1078300081EA0302636C5B421A42D1D002B0BDE818
:10784000F08100BFF00D00202DE9F041036B904660
:10785000826B07689A4288BF8363426C436A90B028
:1078600002FB0377C36B0E46052201A95B69044640
:107870003846984701A824F008F9012801463070DD
:1078800057D0656CE26B2368606AD2F814C005FBC0
