:020000040800F2
:100000000810002071010008B53B000859280008BD
:10001000B53B0008B53B0008B53B0008B53B000800
:10002000B53B0008B53B0008CC3F0008B53B0008D5
:10003000B53B00087C3F0008B53B0008B53B000815
:10004000B53B0008B53B0008B53B0008B53B0008D0
:10005000B53B0008B53B0008B53B0008B53B0008C0
:10006000B53B0008B53B0008B53B0008B53B0008B0
:10007000B53B0008B53B0008B53B0008B53B0008A0
:10008000B53B0008B53B0008B53B0008B53B000890
:10009000B53B0008B53B0008B53B0008B53B000880
:1000A000B53B0008B53B0008B53B0008B53B000870
:1000B000B53B0008B53B0008B53B0008B53B000860
:1000C000B53B0008B53B0008B53B0008B53B000850
:1000D000B53B0008B53B0008B53B0008B53B000840
:1000E000B53B0008B53B0008B53B0008B53B000830
:1000F000B53B0008B53B0008B53B0008B53B000820
:10010000B53B0008B53B0008B53B0008B53B00080F
:10011000B53B0008B53B0008B53B0008B53B0008FF
:10012000B53B0008B53B0008B53B0008B53B0008EF
:10013000B53B0008B53B0008B53B0008B53B0008DF
:10014000B53B0008B53B0008B53B0008B53B0008CF
:10015000B53B0008B53B0008B53B0008B53B0008BF
:10016000B53B0008B53B0008B53B0008B53B0008AF
:1001700008B50B4B83F30A880A4B07A1D1E90001AC
:10018000C3E9000102F032F800F0A0FC02F008F828
:1001900002F01AF800F02CFCA5EDF5FEA5EDF5FE39
:1001A00008000020081000200348044B834202D0BE
:1001B000034B03B1184770479C6000209C600020EF
:1001C00000000000064B0749C91A891048BF0131D9
:1001D000491003D0044B0BB101481847704700BFCA
:1001E0009C6000209C6000200000000010B5064CC0
:1001F000237843B9FFF7D8FF044B13B10448AFF39A
:1002000000800123237010BDAE5D002000000000BF
:100210003841000808B5054B1BB105490548AFF347
:100220000080BDE80840FFF7CDBF00BF0000000020
:1002300010100020384100080023024A1370024ABF
:1002400013707047B05D0020AF5D002038B50378B3
:100250000446042B0D463FD009D8012B0BD0032BAD
:100260004FF018033CD040F603102B7038BD182B0C
:1002700036D0432BF4E7224B4278197801BB012A90
:1002800003D0152340F60410EFE71A70A378134447
:10029000FF2BF6D100228021E01C03F04BFC94F8E8
:1002A0008320C0F30F239A4221D194F88430C0B246
:1002B000834220D1134B627800201A700623D4E7C2
:1002C000104B1B7893420ED00133DBB29342DDD04A
:1002D000152340F60510C8E7062340F60710C4E7CB
:1002E00040F60810C1E7062340F60610BDE71523C7
:1002F00040F60210B9E7152340F60110B5E700BF3C
:10030000AF5D0020B05D002010B590B02C22002120
:1003100005A803F0FAFC054B01AC0FCB84E80F00F5
:10032000214605A800F03AF810B010BD983E00082C
:1003300010B592B047221849684603F0EEFC02F06F
:1003400068FA0A22C0F30363092B8CBF37333033BA
:100350008DF81430C0F30343B3FBF2F102FB113309
:1003600000F00F0030338DF81730B0FBF2F302FBD2
:10037000130001F13004303003F130018DF8191011
:100380008DF81A000122472168468DF8164000F0CA
:100390009BFD002012B010BDA83E00082DE9F04FD3
:1003A0000024ADF5257D4FF49472054688465AA881
:1003B00021468DF80B4003F0A8FC2146682204A8D2
:1003C00003F0A3FC214668221EA803F09EFC3C27F4
:1003D00000F054FC01264FF0FF34DFF81C93DFF8E7
:1003E0001CA3DFF81CB3731E052B09D8DFE813F03C
:1003F0000C001E0041005B005001C0000426F2E723
:10040000FFF796FF0126EEE74FF47A7103A802F09A
:1004100095FA38B99DF80C30312B05D0322B0CBF32
:10042000052600263C27DEE70226FBE701221121F4
:10043000AD4800F049FD2C220021284603F065FC60
:1004400020231EAA04A95AA801F0A2F80026FF231F
:10045000012105206B706E8000F036FC00F080FDFD
:1004600018B10121304600F0F1FDFFF7E5FE03264B
:10047000B9E7432002F06FF900214FF47A7000F0E1
:1004800023FC00F06DFD18B900F044FC0028F8D002
:1004900000F066FD0028B1D1013FA4D1182002F080
:1004A0005AF900269FE7002185220DF1E10003F0B3
:1004B0002CFC002140F6B83000F006FC00F050FDA6
:1004C00088B34FF47A730093012303AA19460DF100
:1004D000E10000F069FD9DF8E130012B0DD140F6FF
:1004E000B832842100920DF1E20003AA00F05CFD15
:1004F000039B0446842B1AD1D8B90DF10B010DF1E1
:10050000E100FFF7A3FE40F60713984204461AD114
:10051000AB78A3B1EB7893B106269DF80B001828B1
:1005200008BF062608E000F0F5FB0028C6D040F220
:10053000047415208DF80B0002F00DF953E7182311
:100540008DF80B30E8E70028E7D19DF8E130012B6A
:10055000E3D180232946CDF8008039AA5AA801F0BA
:1005600053F804460028D8D018238DF80B30D4E770
:100570000121002000F06AFD01210A2000F0A4FB07
:100580009DF80B300122062B0BBF1B211A21504670
:10059000584600F099FC9DF80B30062B81D0A4F54D
:1005A0001063B3F5E06F4FF0010213D211214F48F1
:1005B00000F08AFC40F606139C4213DCB4F5106F81
:1005C00010D0A4F60213042B4ED8DFE803F04F47F7
:1005D0004B5153001021464800F076FC40F60613BC
:1005E0009C421ADC9DF80B309F2B4FEA13108CBFF6
:1005F0003730303000F0A0FC9DF80B0000F00F0009
:1006000009288CBF3730303000F096FC0D2000F008
:1006100093FC0A2000F090FC43E7A4F58053013BD3
:10062000092BDFD8A4F58053013B092BDAD801A2AE
:1006300052F823F089060008E5050008E5050008E2
:100640008D0600087D06000885060008890600085A
:1006500081060008790600088906000821238DF824
:100660000B30BFE72223FAE72323F8E72423F6E73A
:100670002523F4E72723F2E74123F0E74323EEE7BE
:100680004423ECE74523EAE74F23E8E75023E6E776
:10069000AB781BB3EB780BB32B785A0707D5A86A56
:1006A00002F0BCF818B1134800F032F9F9E62B78E3
:1006B0009B0709D56E6802F0ACF8864204D9696AD6
:1006C0000C4800F0DBF8ECE640F2012000F076FA8E
:1006D00001221321484600F0F7FBE2E640F2032036
:1006E00000F06CFADDE600BF583F0008123F00083A
:1006F000023F000800800008EF3E00083D3F000870
:10070000233F0008B0F5EC2F70B50E46144619D201
:10071000C0F5EC2300F10065934205F5004511D3C7
:1007200048B94FF000639B6A074A5969914202D960
:10073000186900F06DFA224631462846BDE870403F
:1007400002F01AB870BD00BF008000087FB56FF0DE
:10075000006200F178419142034619D26D460D4A7C
:1007600002F110062C4610685168083203C4B242E8
:100770002546F7D15A1E04A90F3311F8014D12F87E
:10078000010F844204D19A42F7D1012004B070BD18
:100790000020FBE7693F0008F0B50368044603F159
:1007A0006043B3F5803F9FB031D84FF00067BB6A1C
:1007B00042681E6996422AD82E4B9A4227D8456B2A
:1007C00006F14002AA4252D89D4250D82846FFF76F
:1007D000BDFF00284BD0284602F001F880B16B69BC
:1007E00073B1022B0ED1AB69C4F1040119444FF06F
:1007F000FF32204601F0C0FA1F4BC31A584258413D
:100800001FB0F0BD7F6B3846FFF7A0FF08B900208E
:10081000F6E7A6F150039F42F9D8284603A901F054
:10082000E5FF0028F3D0039DAE42F0D8AC42EED8ED
:10083000104B9D42EBD804A801F062FB21462A1B15
:1008400004A803F095F904A803F094F901F068FBFB
:10085000044601F083FB23460090294605F120025F
:1008600004A801F0CDFAB0FA80F04009C8E70120F1
:10087000C6E700BF00000808E320BBDE70B54FF0FC
:10088000FF3292B005460C4601F076FA1C4B9842B6
:1008900032D14FF480621B4B00219A6601A82022BE
:1008A00003F033FA184B29466846043C009303F0E2
:1008B000B5FA2146684603F0B1FA684603F0B7FA84
:1008C00003F06CFA0646B8B940F2022000F06AF96B
:1008D000202231460AA803F018FA0C4B294609A831
:1008E000099303F09BFA09A8214603F097FA09A897
:1008F00003F09DFA03F052FA002012B070BD00BF61
:10090000E320BBDE009000400100054301000643E8
:100910004FF4806230B50446154B93B09A660021BF
:10092000202201A803F0F1F9124B214668460093FA
:1009300003F074FA684603F07AFA03F02FFA0546DA
:1009400098B940F2022000F02DF9202229460AA889
:1009500003F0DBF9084B09A82146099303F05EFA7E
:1009600009A803F064FA03F019FA002013B030BDAF
:100970000090004000000243000003434FF48062F7
:1009800010B50F4B8CB004469A660021202204A8B3
:1009900003F0BBF90B4B00940393012301930A4B23
:1009A000694603A8029303F05FFA03A803F03FFA35
:1009B00003F0F4F9B0FA80F040090CB010BD00BFAC
:1009C00000900040000008430400002000487047E9
:1009D0000080000840B139B100230B60034B036075
:1009E0000B6843F400030B60704700BF0C12000853
:1009F0004FF480302F49304A4B6E10B55066486E28
:100A00004FF000414AF6CD3451662C4903F480334F
:100A10004A6C0C6402F001024C6BE407FCD4012424
:100A200027494C60A1F500510C6BE407FCD50AB1D5
:100A3000244A0A640028A2BF4FF00041224A5166AE
:100A40001BB94FF48032204B5A664FF04023D3F845
:100A50008420110606D44FF400621A67D3F884206C
:100A6000D206FBD401F0EAFE00F086F801F06EFE3B
:100A700001F06EFE18B14FF4017000F09FF8FFF71F
:100A800043FC044601F066FE34B940F2012000F058
:100A900095F84FF4017009E040F203739C42F4D0E2
:100AA000A4F20574012CF4D840F2032000F086F87B
:100AB000002010BD00800040009000400040094030
:100AC000006009403254FFFF00A00040012307B539
:100AD0008DF806308DF807304FF04023D3F894306E
:100AE0005A060FD500F07EF8A0F2022080B2072847
:100AF00008D8C923C340DB0742BF00238DF8063066
:100B00008DF80730194B5B68013308D14FF4027040
:100B100000F048F800238DF806308DF807309DF876
:100B200007305BB11148FFF737FE8DF806009DF8DE
:100B300006301BB94FF4027000F034F89DF806300F
:100B400083B14FF480330721094A0848936602F5C0
:100B50002032C2F82011A2F51C329366054B986032
:100B600001F070FE03B05DF804FB00BF00600008F8
:100B70000090004000ED00E04CF23C32014B5A8006
:100B8000704700BF000000204AF6C030044B5B886D
:100B900023F00F039BB21B1A58425841704700BF05
:100BA00000000020044A08B51080FFF7EDFF10B9DF
:100BB0004FF20F03538008BD0000002008B5FFF777
:100BC000F1FFBFF34F8F0549054BCA6802F4E0629D
:100BD0001343CB60BFF34F8F00BFFDE700ED00E094
:100BE0000400FA054FF20F01084B5A888A4201D1DE
:100BF000188870473AB91B8840F20220012B18BFB1
:100C00004FF4007070474FF40070704700000020F0
:100C10004FF4803208B5044B9A6601F079FBB0FAC4
:100C200080F0400908BD00BF00900040072BF8B5D8
:100C300006460F4614461D4601D90020F8BD012185
:100C4000202001F0E1FA0121212001F0DDFA8CB130
:100C500044EA06039B07F0D14FF48032064B31463D
:100C60009A66284623463A4601F07AFBB0FA80F0AD
:100C70004009E3E70120E1E7009000401FB51022A2
:100C80000E4B5A6600F000FA4FF47A23B0FBF3F0F3
:100C90000B4B0F22186000210DF1010003F035F815
:100CA00001238DF8003040F2FF3369460548ADF866
:100CB000023002F096FF05B05DF804FB00900040A2
:100CC000281000200080044030B50D4D0D4A2D68DD
:100CD000536A15FB00F515FA83F09CB280B2A0426E
:100CE0002CBF00240124084B1880084B1C7011B144
:100CF000536A8342FCD1012305494B61936130BDA6
:100D00002810002000800440AC5D0020B15D002070
:100D100000A00440094B0A4A5869127800F001000B
:100D20000AB108B9704738B9586A064B1B8898420F
:100D300034BF00200120704701207047008004402C
:100D4000B15D0020AC5D00202DE9F047DFF8449153
:100D5000494BD9F80020494F02F13C01996002F15A
:100D600024037B627B604FF08063DFF82CA10125B8
:100D70000AF58058C8F864304FF40073C8F864303E
:100D800002F580535D6040F6AA630024536141F28E
:100D900005033B4E3B4802F500519460D465D36097
:100DA0001461D461D4648864C6F89847C6F8B04723
:100DB000C6F8A847C6F8A047C6F8A447D36093680A
:100DC000936000F061F9DAF870300821C3F38023F2
:100DD0002B44B0FBF3F24FF4E11302F5E142520170
:100DE000B2FBF3F2284B203A03EAC203D9F8002001
:100DF0002046D3612B46042201F020FA2B462A46D6
:100E00000921204601F01AFA1423C6F898374FF446
:100E10000023C6F8B0374FF4102304222146284699
:100E2000C6F8A8372B4601F009FA0522D9F8003098
:100E30004FF0F0515A6103234FF48020134AC8F851
:100E4000643055609160124954629463146454652F
:100E5000486002301466D46517678860A1F50051B8
:100E6000C2F89040C2F88C404B630223956402F5AF
:100E700080521361BDE8F087746000203460002068
:100E800000C00340FFFF0100F8FF7F0000000440A6
:100E9000004004408460002000800040084B586BF4
:100EA00010F0020006D002229A6203F500530120DE
:100EB0005A637047DB6A9B07FBD40222014BF6E7BB
:100EC000000004400020044070B54E1E7E2E0446F3
:100ED000154622D8FFF7E2FF10B32046124B2144FB
:100EE00010F8012B884203F8012BF9D10F4B1A8817
:100EF00066F30E121A800E4AC2F8A03002239364E1
:100F00000DB9002070BDFFF7C9FF0028FBD0094BC9
:100F10001A6893699B06FCD5F3E741F20310F1E7E9
:100F200041F20620EEE700BFB25D002074600020B1
:100F30000000044084600020014608B5FFF7AEFFC2
:100F40000028FBD0054B1B689A695006FCD5D96375
:100F50009A699206FCD5002008BD00BF846000207D
:100F60000E4A0F4B106840F20112DB6E934205D11E
:100F700090B10023C0F500701844704740F202227F
:100F800093420EBF4FF48073064A9B1A984202D0D8
:100F9000F0D2181A70470020704700BF2C100020B4
:100FA00000000440325E00202DE9F843089D04460D
:100FB0000E461746F3B9FFF7D3FFB04228BF3046BD
:100FC00000214FF001084FF002091D4A054604EBCD
:100FD000000C1368DFF870E01A4864451CD101B1B9
:100FE000136007B13D6041F20420AE4298BF00207B
:100FF000BDE8F8832DB1FFF741FE00212846FFF739
:1010000063FEFFF7ADFFB042D5D2002DF9D0FFF758
:1010100081FE0028F5D0CEE71EF803100133B3F5AA
:10102000007F04F8011B04D10023C0F810900121B7
:10103000D3E7B3F5807F08BFC0F81080F7E700BFA3
:101040002C10002000100440325E002010B102225B
:10105000094B9A6271B101220020074B07499A623D
:101060004A6307491967074908609A64022203F531
:1010700080531A61002070470000044000200440A3
:10108000346000202C10002030B51C4B87B001AA22
:1010900003F11005144618685968083303C4AB42BD
:1010A0002246F7D11B782370154B1B6F03F0070303
:1010B000032B1FD04FF48022124B5A66124A9368BA
:1010C000C3F30443102B17D818336B440F4913F89C
:1010D000143C4B430E498B4203D19268C2F3016228
:1010E000D340074A106FC0F303300130B3FBF0F078
:1010F00007B030BD074BF4E7074BF2E71440000898
:1011000000800040009000400000014040420F007D
:1011100000093D0000F04902C0EA21010A4B1868AD
:1011200030B9B1F5205F0DD8012208481A60704728
:10113000012806D1B1F5005F03D8022204481A60E5
:1011400070470020704700BF30100020AC350020F1
:10115000AC15002031B1044A1368002BC4BF03F161
:10116000FF331360704700BF3010002002232DE9C9
:10117000F04F8846164600278BB0DFF8C490DFF8A2
:10118000C4A005908DF81F309DF81F20022A07D0BB
:10119000002E48D041F20231012A18BF0F4642E02A
:1011A000D9F80010234DC1F540730893DAF80030E8
:1011B000214809930DF11F0302930023019309AB0A
:1011C000009308AA1D4B294402F059FB9DF81F30DB
:1011D00038BB63B3089BD9F8004029461C4424F06F
:1011E000030B43465A46059800F07EF914F00304B9
:1011F000074605D02246284605EB0B0102F06BFDA1
:10120000DAF800200999C9F800408A42A2EB0104EB
:1012100004D90A482246014402F05DFDCAF80040A4
:10122000B2E741F2033738460BB0BDE8F08F41F228
:101230000237F8E7A810002034100020AC1300207B
:10124000A4100020A813002008B570220021064831
:1012500002F05BFD01220020044B1A70044B186061
:10126000044B186008BD00BF34100020326000201D
:10127000A4100020A81300202DE9F84399465B68CC
:1012800006468846144643B31E4B1D78A5B100227E
:101290001A7051F8043B052203661B4B1B4800F0F3
:1012A00077F860BB194802F0D7F9D6F88C50184B84
:1012B0009D4214BF11251925164F641B3B68C3F5C9
:1012C0000073A3420CD33E6813482246304408EB17
:1012D0000501264402F021FD3E600020BDE8F883B0
:1012E000002249463046FFF741FF0028F6D13B680F
:1012F000C3F50073A342E6D241F20430EEE741F2B7
:101300000530EBE7326000208C60002034100020B4
:10131000F80C0CF8A8130020AC130020436D3BB967
:10132000D0F88C00034B984214BF1120192070474D
:1013300001207047F80C0CF84B6870B505460C4658
:10134000E3B10122FFF712FFC8B90D4B186888B14D
:101350000C4E0428C0F104024FF0FF0188BF0022A8
:10136000304402F0D2FC234604223146284600F0E5
:10137000BBF820B90449054802F0FDFA002070BD11
:10138000A4100020A81000208C6000203410002041
:101390002DE9FF41E846044640461E4602F0F7FAB2
:1013A000054660BB32464146204602F0C3FA054678
:1013B00028BB039AB2F1804F25D240F6FF7316493D
:1013C000B2F5800F28BF0B469F1827EA0307616913
:1013D000974238BF174611B1A36ABB4215D03046B9
:1013E00073689847002339466361304633689847ED
:1013F000606150B93146204602F093FA0225284632
:1014000004B0BDE8F081054BDEE798E80F00A76265
:1014100084E80F00F3E700BFFFFF0F00FFFF3F006E
:101420000068024BC31A584258417047FD0707FD38
:10143000034A044B90420CBF18460020704700BF7F
:10144000FD0707FD2840000830B5024600230C25A3
:10145000054905FB03F460180C59944203D001338D
:101460000D2BF6D1002030BD3C400008F0B5002324
:10147000082787B0CDE9013315463B46009704AAFB
:10148000044602F0C7FA41F203039842064623D10C
:1014900094F8433053B13A46E06C04A902F068FB7B
:1014A00004AA3B461146A06C02F051FB059A049B2E
:1014B0006A6094F843202B6052B9094A934207D0DE
:1014C000084A934204D00822E06C04A902F050FBC1
:1014D0006B68236500236365304607B0F0BD00BF2D
:1014E000F70A0AF7FC0404FC2DE9F04799465B680B
:1014F00004460F469046002B3FD08B0740D14FF05B
:1015000000639B6A006E1B6981181D1DA9421BD3D5
:101510001C33984218D2A842024638BF2A46994244
:1015200094BFC2EB010AC2EB030A101A3E18C5F1C0
:101530006800104431465246204402F0EEFB524609
:10154000FF21304602F0E1FB226E0F4B9A420BD88E
:101550000E4902EB0800884206D39B1AFA58C4F8D9
:1015600080204FF0FF32FA50D9E900354246394623
:10157000206EA847236E434423660020BDE8F08711
:1015800041F20200FAE700BF04800008088000086A
:101590002DE9F04100254FF0FF37044688461646F6
:1015A00003F0200380F842301822FF21C0E91855CB
:1015B000A0F8405080F84350A0F8445080F84650BE
:1015C000C0F88870683002F0A0FB88222946C4E980
:1015D0001286C4F88070C4F8847004F1900002F0A0
:1015E00094FB084BC4F82071C4E9463584F82451B3
:1015F0002EB1304600F084FC2846BDE8F08141F26F
:101600000B00FAE7000101012DE9F04F9DB0CDE993
:1016100009230593002304460E464FF00109269D39
:101620000B930B9A059B9A4201D300202CE194F86E
:101630004630142BF6D8DFE813F0BF000601B900DE
:10164000920079007601DD017900D501790037003B
:101650007900D5011C03970315006C01CD02CD0262
:10166000600295030027636D0F2B00F2A380102307
:1016700020460093CDE9019740230CAA09A902F066
:10168000C9F941F20303984240F0AA80D4F8488097
:1016900000F082FC80230221CDE900030DAA012382
:1016A000404600F081FBDEE7DFF8ECA3636D072B1B
:1016B00000F2468138234FF008080DEB0302204664
:1016C000CDE90199CDF8008009A902F0A3F941F212
:1016D0000303984240F08480337843F0040333706E
:1016E0000F9BB36273785B071CD50020236DCDF888
:1016F00030A0C4F8843094F84530606643F00203AB
:1017000084F84530EF686FB104222B680CA9B84704
:10171000606E2B684246EF680EA94044B847636E7E
:10172000103363660B2384F84630BFE74FF001089F
:10173000D4E914739F423DD9FF1ADDE90A329B1A9E
:1017400094F84020032F134440F25881032B00F2F9
:101750008881204609A902F03CF9002040E00127D9
:10176000636D072B00F2EC80082320460093CDE93F
:10177000017740230CAA09A902F04CF941F20303B6
:1017800098422DD1337843F0020333700C9B736081
:10179000236D083B73620D9BB3F1006F00F0028173
:1017A000142384F8463041F2010019E00027636DEC
:1017B000072B1DD901231AE120460CAA09A9FFF71E
:1017C00055FE41F2030398420AD10D9B0C9A236502
:1017D00000236365AE4B9A42E2D1022384F846307F
:1017E00041F203030790079A9A423FF41AAF4AE086
:1017F000082320460093CDE9019740230CAA09A9AC
:1018000002F008F941F203039842E9D10C9B03F07E
:101810007F43B3F1407F05D0142341F2090084F8DF
:101820004630DDE70D9AD00742BF94F8423043F0CE
:10183000010384F84230D105B9D4142341F20A00DF
:1018400084F84630CCE720460CAA09A9FFF70EFE23
:1018500041F203039842804609D10C98FFF7F4FD4A
:101860000746A0B9142341F2080884F8463041F233
:101870000303CDF81C80079A9A423FF4D2AE079B2F
:101880000BB10023F37007981DB0BDE8F08F4379CA
:1018900094F824219A4205D9142341F20E0884F8C1
:1018A0004630E4E701687B4A914205D00289D207BD
:1018B00048BF013384F8243194F84230D8070DD55D
:1018C0003A8994F84330910706D53BB1142384F844
:1018D000463041F20108CAE7002BF7D00CA8FFF709
:1018E0009FFD18B93B7984F84630C0E70C98C4F8DE
:1018F0008C00FFF79DFD94F842309A06F2D500283F
:10190000F0D04368002BEDD0204698470028E9D05E
:10191000DFE7226D0123A265002284F84330E265EF
:1019200084F846307DE600213C220DA80C91012769
:1019300002F0EBF9D4E91432934204D884F84670EB
:1019400041F203004CE7009320464023CDE90177A4
:101950000CAA09A902F05EF841F2030398427FF451
:101960003FAF06F1080E73460DF1300C0DF148083B
:10197000624603CA424518605960944603F1080361
:10198000F6D1106818603378704643F00103337065
:1019900000F0B4FE0028CDD1142341F20C0084F8ED
:1019A00046301DE7042384F8463094F8453043F070
:1019B000010384F8453000236366D1E60423204602
:1019C0000093CDE9017740230CAA09A902F022F87F
:1019D00041F2030398427FF403AF226D0C9B042A6B
:1019E00001D923660127636D032BE7D9092384F806
:1019F0004630A5E700236366072391E79F423FF641
:101A0000A8AE9F4228BF1F4640232046CDE901884B
:101A100000970CAA09A901F0FDFF41F203039842C7
:101A20007FF4DEAE94F846B0BBF1070F22D0042F4E
:101A3000C7F1040A88BF4FF0000A0CAB5246FF21E1
:101A4000D81902F062F9BBF1090FBA4426D12B462E
:101A5000524620460CA9FFF747FD00283FF468AE28
:101A6000BEE6402F28BF40279F4228BF1F4627F0D1
:101A70000307C9E7D5F808A0BAF1000FD7D02B6843
:101A80003A46606E0CA9D047636E3B4463664FE6EE
:101A9000EB17A603F90707F9EB17A65EBBF1040FD6
:101AA0001FD173789F077FF543AEEB68002B3FF49F
:101AB0003FAE626E042A0BD80AEB0203062B07D94D
:101AC0000DAB9B1A1A68C4F884204FF0FF321A60DD
:101AD000EF682B685246606E0CA9B847636E53449A
:101AE000D4E7BBF10B0F7FF423AE737858077FF573
:101AF0001FAEEF68002FECD11AE694F8427017F091
:101B0000200707D0D4F88C00FFF792FC0746002886
:101B10003FF449AE4FF0010A41E0002B58D0002FAE
:101B200056D03B69002B53D020469847DDE90A3256
:101B30009B1A94F8402013448342FFF40AAED4E980
:101B40001421A2EB0108B8F1400F28BF4FF0400864
:101B5000984528BF984620464023CDE901AACDF8F4
:101B600000800CAA09A901F055FF41F20303984235
:101B70007FF436AE94F84230990610D5002F3FF42A
:101B800012AED7F808B0BBF1000F3FF40CAE2B46F5
:101B9000424620460CA9D84700287FF421AED4E95C
:101BA000142194F84230914203F02003B5D3002B66
:101BB0003FF400AE002F3FF4FDADFB68002B3FF477
:101BC000F9AD29462046984700283FF4F3AD07E6D3
:101BD0000120ABE74FF000618A6A496B1269503A05
:101BE00091423FF6E0AD112B0AD194F81831002B49
:101BF0007FF4E0AD142341F2060084F84630EFE5AF
:101C000094F84430002B7FF4D5ADCDE90133402367
:101C1000204600930CAA09A901F0FCFE41F203033F
:101C200098427FF4DDADE06C01F0A4FF94F8183128
:101C30006BB104F1B4030093E06C04F1940314AAB3
:101C40000CA900F0DDF878B10023F370D2E7D4F8E6
:101C50004C8000F065F9074600F080F93B460090A3
:101C600014AA40460CA9ECE70123F37084F8443031
:101C7000A0E500234FF00408CDE9013320464023BE
:101C8000CDF800800CAA09A901F0C4FE41F20303BB
:101C9000984209D1D4F88820354B9A4206D01423B3
:101CA00041F2050084F846300790ECE594F84430A2
:101CB00033B9F370142341F2060084F84630F3E799
:101CC000F378002B47D094F84530DA0707D5EF6852
:101CD0002FB1424640462B6804F18401B84794F87E
:101CE00045309B0707D5EF682FB104222B681046BB
:101CF00004F18401B847236E6BB36F685FB34FF094
:101D0000FF3304F180080422414608A8089301F03B
:101D1000D2FF20B1042241462B681648B84704F18F
:101D200068090422494608A801F0C5FF98B14FF0A0
:101D300000639B6A1422D3F8108004F16C0108F14F
:101D40000800D5E90037B847D5E9003704224946ED
:101D500008EB0200B8470123B3700E23002084F87B
:101D60004630A1E70023F37041F207008CE500BF85
:101D7000E320BBDE0480000830B50824094B0025B1
:101D80005C66012403F5FE235C6001449D601A61DA
:101D9000DC60884201D1586A30BD10F8012B1A620C
:101DA000F7E700BF009000402DE9F04116464FF4E0
:101DB00080621D46114B00F1200804469A66404699
:101DC0000F4601F059FFDDE90612404601F058FFC9
:101DD000002384F8587063643368C4F8593073681A
:101DE000C4F85D30B368C4F861302B0C6DBA84F868
:101DF0006530A4F86650BDE8F08100BF0090004057
:101E00002DE9F04315464FF480621C46364B9BB0DB
:101E1000DDF888900E4607469A66002861D00029B2
:101E20005FD0002D5DD0002C58D0304B304AB9F136
:101E3000000F14BF984690462022002112A801F0FE
:101E400064FF2C4B414611A8119301F0E7FF2021BC
:101E500011A801F0E3FF0122274B0294039204939F
:101E6000CDF814900692079354B1B9F1000F07D042
:101E700002A911A801F0F6FE05A911A801F0F2FED1
:101E8000089701271C4C08A911A809970A9401F08A
:101E9000E9FE0BA911A80B960C970D940E950F97C0
:101EA000109401F0DFFE0EA911A801F0DBFE11A8CD
:101EB00001F0BDFF114B01934FF098435A6CD202D1
:101EC000FCD55B6D40F2046003F470230193019B29
:101ED000002B08BF00201BB0BDE8F083DFF81080A6
:101EE000AAE740F20160F6E7009000401F2400805E
:101EF0001F24FC84000001062000002078563412C4
:101F00004FF4806210B50446044B9A6601F035FE2A
:101F10002046BDE81040002101F033BE0090004093
:101F20004FF4806200B50B4B9BB09A6600212822CB
:101F3000684601F0EAFE4023002168460AAA00F044
:101F400081FA20F010000128034818BF00201BB0C0
:101F50005DF804FB009000404CE307084FF48062FA
:101F600000B50B4B9BB09A6600212822684601F011
:101F7000CCFE4023002168460AAA00F063FA20F054
:101F800010000128034818BF00201BB05DF804FBB7
:101F9000009000406CE307080048704786E207089D
:101FA0002DE9F3471446DDE90A920D461F46002845
:101FB0004DD14CB313683F2B2AD8516851B32549F2
:101FC000002F14BFB846884603F03F061B19136064
:101FD00022BF536801335360FEB93F2C0ED9A309C9
:101FE0002A46009341463B46002000F083F824F047
:101FF0003F031D4404F03F0434B100262246294625
:1020000009EB060001F089FE002002B0BDE8F08770
:10201000B846D9E7DFF83C80D6E7C6F1400A544518
:10202000ECD32946524609EB060001F076FE012367
:10203000264400934A463B4641460020A6F1400410
:1020400000F058F83F2C5544D6D9B846C7E70248A7
:10205000DBE700BF1841000880AFFFFF2DE9F0412A
:102060001746146886B01E46E3008DF80F306309EA
:102070008DF80E30630B8DF80D30630D8DF80C303C
:1020800053680546DA0002EB54728DF80B2004F019
:102090003F045A09372C8DF80A204FEA53324FEA91
:1020A00053538DF80920884694BFC4F13802C4F117
:1020B0007802CDE900178DF808300D49034600205D
:1020C000FFF76EFF08222B460020CDE900870DEBBD
:1020D0000201FFF765FF284605F1200350F8042BA5
:1020E000984246F8042BF9D1002006B0BDE8F081F3
:1020F000D8400008F0B517464FF480621D46264BC5
:1021000093B09A6624220E46044600210DEB02008D
:1021100001F0FBFD01204FF0005200970190029268
:10212000039604900592069507900892002C2FD1F3
:10213000189C1A4BA401214609A8099301F06EFED0
:10214000029B03A91C430294059B09A843F02003AA
:102150000593089B43F02003089301F083FD694633
:1021600009A801F07FFD06A909A801F07DFE09A8D4
:1021700001F05DFE4FF098435A6CD202FCD55B6DC6
:1021800013F4702F14BF6FF06F00002013B0F0BD78
:102190006FF07100FAE700BF0090004000040103F7
:1021A000064B0748DA1C121AC11E22F0030299429C
:1021B00088BF0022034901F0B0BD00BF9C60002031
:1021C0003460002044410008064B0748DA1C121A0C
:1021D000C11E22F00302994288BF0022002101F0B3
:1021E00094BD00BF3460002010100020044B054A4D
:1021F0009A60D3F8882042F47002C3F888207047B0
:1022000000ED00E000000008430905D0012B0CD0D0
:10221000022B084B18BF002300F01F0039B103F553
:102220008053012282401A607047034BF4E703F5A4
:102230000053F6E768800040648000402DE9F041DB
:1022400005460F461E4690464AB101233022194CDE
:102250008B4002FB004436B304F5825423600F2107
:10226000072F05EB450388BFA7F108044FEA0313C6
:10227000114895BFBC00A40004330C3308FA04F2E3
:10228000A140184401F097FCB8F1000F09D10123D7
:102290003021084ABB4001FB05223EB102F58252C3
:1022A0001360BDE8F08104F50154D7E702F501524F
:1022B000F6E700BF00C0034030C00340F0B5114A4C
:1022C000114C124E00F00105E3695F0713D40DB9FC
:1022D000334213D103EA00078F4207D10B4A1A4059
:1022E000002A0CBF00206FF00100F0BD013AEBD1D5
:1022F0006FF00200F9E74FF0FF30F6E76FF00100F2
:10230000F3E700BF80969800000003400200010040
:102310004FF4803238B50E4B0E4C9A66E56941F6A3
:10232000713315400122E3630B4B0021DA60022375
:10233000606121202361FFF7C1FF10B92120FFF761
:10234000BDFF0122054BDA600DB10023E36338BD08
:1023500000900040000003400010034000200340B4
:102360002DE9F04F01264FF430258400DFF8C4C07A
:1023700004F1402404F58024CCF804606560302525
:1023800000244FF48037DFF8B0E0DFF8B09005FBB1
:1023900000E5EC652C662C67214CDFF8A4A0A7664D
:1023A00041F671341F4F06FA00F0D7F81C80FC6329
:1023B0001D4CE66043B901211C4A18F4803FD160EE
:1023C00029D10020BDE8F08F01F5005404EA09048A
:1023D000641A9C4228BF1C467961D7F81CB0A60835
:1023E0001BF0040F19D1013E360146F060566E66AF
:1023F000AA66C5F86CA0CCF82400DEF83460304240
:10240000FBD00B4E214470630426CCF828002244F4
:102410003E611B1BCEE7FB63D3E74FF0FF30D1E7F4
:1024200000900040000003400010034000200340E3
:1024300000200440001004400000044000E0FFFFC2
:10244000180003401FB5044660B35AB3402B29D18E
:10245000930727D1042925D8DFE801F0031A2422A5
:102460001E004FF4807310490B4323600023C4E91E
:10247000013323620123019202930C4B204601A9F0
:10248000039301F0F1FC204601F066FC04B010BD9E
:102490004FF400730449E7E705494FF48063E3E72D
:1024A0000149FAE72120F1E7010008FF4000002080
:1024B000000008FF2DE9F041012905460E4690462F
:1024C0001F4692B04AD8046824F04003802B02D003
:1024D000B4F5807F45D1202200210AA801F015FC27
:1024E000234A244B0121012E08BF134609932B1DBB
:1024F0000093E408204B44F00054019109A8029491
:10250000CDF80C80049105930697079169460893CE
:1025100001F0A8FB03A909A801F0A4FB06A909A8DA
:1025200001F0A2FC296809A8C90801F077FC102174
:1025300009A801F073FC01F0FDFBA8B909A801F09E
:1025400076FC4FF098435A6CD202FCD55C6D01F0DA
:10255000FBFB04F4702012B0BDE8F0816FF02000A6
:10256000F9E76FF07100F6E74FF0FF30F3E700BFD7
:102570000001000400010104100000202DE9F04FCB
:10258000074689469846164699B082B115683B6859
:1025900023F04002802A03D0B3F5807F40F0A6806C
:1025A00000244C4505D306B1356000207BE015467C
:1025B000EDE75DB1239B229A1B5D525D01355340CF
:1025C000249A05F00F0513550134EAE7A9EB040A34
:1025D000BAF10F0F0BD8239B03EB040A249B1C4476
:1025E000239B03EB090BDA4560D14C46D9E7202247
:1025F000294610A801F089FB3E4B3A680F933B1D1A
:1026000000930123D20842F00052019302923A4A09
:10261000CDF80C8004930592CDF8188007930892AA
:10262000239A249922442AF00F0A099221444AF05D
:1026300000520A930FA80B920C9169460D930E92CB
:1026400001F010FB03A90FA801F00CFB09A90FA8CA
:1026500001F008FB0CA90FA801F006FC06A90FA8C1
:1026600001F002FC39680FA8C90801F0D7FB5146F8
:102670000FA801F0D3FB01F05DFB90B90FA801F0AA
:10268000D6FB4FF098435A6CD202FCD5586D544497
:1026900000F4702B01F058FBBBF1000F9BD05846A3
:1026A00001E04FF0FF3019B0BDE8F08F55B1229A2C
:1026B0001AF8013B525D0135534004F8013B05F027
:1026C0000F0590E7424601213846229BFFF7F2FEB4
:1026D0000028E8D108F1100212F8013D0133DBB205
:1026E0001370002BE3D19045F6D1E0E76FF01F00A7
:1026F000D9E700BF030300041000002038B54FF0F5
:1027000000639B6A05461A69546BA24201D30120FB
:1027100038BD5B69A342FAD92046FEF717F80028B6
:10272000F5D0236913F0FE000ED16A68236A9A423D
:10273000EED9102204F1280105F10C0001F0BBFADA
:10274000B0FA80F04009E3E70020E1E700F012B8BA
:10275000FDF7EEBD704710B50446FEF7EDFB182CF3
:1027600007D12046FEF7E8FB2046BDE81040FEF703
:10277000E3BB10BDFEF7E8BAC0F30C032DE9F0414E
:1027800005460F4616460BB9FEF742FA05F500540A
:1027900024F4FF5424F01F0405EB0608A04507D8D5
:1027A000324639462846BDE8F0410223FEF73EBADC
:1027B0002046FEF72DFA04F50054EFE770B44FF011
:1027C0000065AD6A03462E69864206D86C691344DB
:1027D0009C4202D370BCFFF7CFBF70BC7047036947
:1027E00013F0FE0F0CBF01200020704738B50446DF
:1027F0000D46FDF7ABFF38B16369012B07D12046C9
:10280000FFF7EDFF10B1A46901202C6038BD002056
:10281000FCE74FF000639B6A986870474FF0FF3306
:1028200013B5044601A80193FEF7A8F820B1019B57
:10283000A3422CBF0020012002B010BD0020704731
:102840000020704703461846016881F3088881F329
:10285000098840688746FEE74FF40170FEF7AEB97D
:10286000B1F50D7F10B504460FD34FF40D72002162
:1028700001F04BFA04F5DE7204F5AA7104F12C00A4
:102880000023BDE81040FEF783BE40F2052010BDD6
:1028900013B50446009101462C30FEF7B5FEC4F88E
:1028A000300218B141F20703984204D1A37823B152
:1028B000E07800F2022002B010BD40F20120FAE7F9
:1028C0002DE9F04387B00DF1080904460E4617467E
:1028D0000021102248461D46DDF8388001F015FA27
:1028E00000211C22C8F80010284601F00EFA3246DA
:1028F0003B462146CDF8009004F12C00FEF784FE03
:1029000023789A0744BF6268C8F80020DB0709D51E
:1029100004F1080304F1240253F8041B934245F820
:10292000041BF9D1237840F20640002B18BF002089
:1029300007B0BDE8F0834FF40D707047012307B571
:10294000002200911946FEF72FFB03B05DF804FB4F
:10295000826CF0B5531EB3F5887F18D8D0E9093CD6
:10296000D0E90B47C91A914228BF11464569866BC9
:102970002FB9C768A7EB040E8E4598BF07630C44B8
:10298000521AC462826419448B4201D14362F0BD81
:10299000B34234BF644600249A1B2A44125DEA54B1
:1029A0000133F1E72DE9F04F95B008910D92036BDB
:1029B000416A0793C36A0193079B002B40F0AA80EA
:1029C000019AC3689B1A089A521A9A4240F2A2804E
:1029D0000B444FF0FF37D0E90DBA8568099307FA29
:1029E00005F5ED430E954568C36BAF40FD430F956C
:1029F00000250293036C04690393436C0B950493C5
:102A0000036804F668250C93119504F26465436924
:102A100012950C9D0593C5F10805836A026A13950A
:102A20000693D0E906360E9D019FB6F1807F05EA38
:102A3000070808EB0B1C3CBF13F8015B360234F8A7
:102A40001C7038BF45EA0222F50A7D4395424FEAE1
:102A50000B1E40F2C380C7F5006607EB561624F83C
:102A60001C60019F079E04F66C6C3E4312D03E46EC
:102A70000F9F37400C9E07FA06FE00294CD1069E98
:102A8000013E059FBE5D139F3E414FF4C0677644F3
:102A900007FB06CC019EBBF1060F06F1010601966D
:102AA00047D80126BBF1030F94BFABEB0B0BABF187
:102AB000030B0096009EB5F1807F38BF13F801EB41
:102AC0004FEA460638BF2D023CF8067038BF4EEA82
:102AD00002224FEAD52E07FB0EFE964500960CEB20
:102AE00006081BD9C7F5006507EB5515AFB275464B
:102AF000009EA8F80070FF2EDCD9059E009F775439
:102B00002E460131099D8D4240F236830D9D9D4236
:102B100089D831E3089B5CE74E1EB2E7009EA7EB25
:102B200057170136A5EB0E05A2EB0E02BFB20096B9
:102B3000DEE7069FA1EB0A06514528BF0027BE46E7
:102B4000059FBBF10A0F3E4416F80E9034BF0326D2
:102B50000626ABEB060B01264FF4807800964FEA71
:102B60004909009E09EA08070A9708EB06070A9E2A
:102B7000B5F1807F38BF13F801EB37440CEB470603
:102B800038BF2D023CF8177038BF4EEA02224FEAD8
:102B9000D52E07FB0EFE1096009E96454FEA460680
:102BA00000960ED9C7F5006507EB5515AFB20A9D23
:102BB00028EA05087546109E3780009EFF2ECED964
:102BC0009BE7009EA7EB57170136DDF82880A5EBA1
:102BD0000E05A2EB0E02BFB20096ECE7761BA7EB48
:102BE0005717B6F1807F24F81C70A2EB05020BF199
:102BF000C0093CBF13F8015B360234F8197038BFC6
:102C000045EA0222F50A7D4395424FEA490C40F21B
:102C10000581C7F5006607EB561624F81960049E77
:102C2000129F0A96039E0BF10C0B0496029ECDE9AF
:102C300002A6B5F1807F3CBF13F8016B2D02B7F8F7
:102C400000C038BF46EA0222EE0A0CFB06F69642A6
:102C500040F2A3814FF0000ECCF500650CEB55154A
:102C60003D8007EB081704374FF008094FF0010CBF
:102C7000B6F1807F38BF13F8018B4FEA4C0C38BF98
:102C8000360237F80C5038BF48EA02224FEAD628FD
:102C900005FB08F8904507EB0C0A40F2AE81C5F53C
:102CA000006605EB5616B5B24646CC45AAF800506C
:102CB000DED3AEEB090E0EEB0C05BBF10B0F00954E
:102CC00040F2B382032D94BF4FEAC51E4FF49C6EB1
:102CD0004FF0010598BF0EF5587EB6F1807F4FEAA0
:102CE000450538BF13F801CB05EB0E0838BF360297
:102CF00034F8087038BF4CEA02224FEAD62C07FBA2
:102D00000CFC944540F28381C7F5006607EB56162C
:102D1000B7B266463F2D24F80870DED9403D032D3A
:102D20003FD905F0010C0D2D4FEA55074CF0020C70
:102D300000F283814FF00108013FC5F1004E0CFA0B
:102D400007FC0EF2AF2EE6444FEA4E050B95C24645
:102D500065460A970B9FB6F1807F4FEA480838BF57
:102D600013F8019B07EB080E38BF360234F80EC08B
:102D700038BF49EA02224FEAD6290CFB09F99145EE
:102D800040F24E81CCF500660CEB56161FFA86FC1D
:102D90004E460A9F24F80EC0013F4FEA4A0A0A979E
:102DA000D8D1079F05F1010A002F40F03C82019F16
:102DB000AF4240F25782BBF1130F34BF4FF0070B05
:102DC0004FF00A0B009F099D0237B5EB010CB84686
:102DD00000F04882BC4528BFBC46069FA1EB0A050F
:102DE000514528BF00273D44019F67440197A8EB48
:102DF0000C070B97069F7F1BBC45059F0F4400F2F5
:102E00001C82A5EB0108059D614405EB010C17F838
:102E100008E007F801EBBC45F9D173E6A7EB5717BB
:102E2000761B521B24F81970079D019F3D4303D167
:102E3000012015B0BDE8F08FB6F1807F38BF13F8E0
:102E4000015B0CF1180938BF360234F8097038BF3D
:102E500045EA0222F50A7D43954250D9C7F500663E
:102E600007EB5616B5F1807F24F809600EF1F00EDD
:102E700038BF13F8016BC64438BF2D0234F81E70FA
:102E800038BF46EA0222EE0A7E4396421FD9C7F5B2
:102E9000006507EB5515069F24F81E50514528BFC5
:102EA0000027BC46059FA1EB0A053D4415F80C50D0
:102EB000BBF1060F7D54019D88BF4FF00B0B05F150
:102EC000010598BF4FF0090B013101951AE6AD1BC2
:102ED000921B029ECDF808A0B246A7EB571724F824
:102EE0001E70049EBBF1060F0A96039E8CBF4FF026
:102EF0000B0B4FF0080BCDE903A6119F99E6761B4B
:102F0000A7EB5717B6F1807F24F80970A2EB0502F2
:102F10000CF1300E3CBF13F8015B360234F80E7032
:102F200038BF45EA0222F50A7D43954206D9C7F526
:102F3000006607EB561624F80E60D2E7761BA7EB67
:102F40005717B6F1807F24F80E70A2EB05020CF142
:102F5000480C3CBF13F8015B360234F80C7038BFE4
:102F600045EA0222F50A7D4395420AD9C7F5006673
:102F700007EB561624F80C60DDE90267029703960A
:102F8000AFE7A7EB571724F80C70049F521B751B73
:102F9000029E0297039F0497F1E7AD1BACEB5C1C0C
:102FA000B5F1807FA7F800C0A2EB06023CBF13F882
:102FB000016B2D02B7F802C038BF46EA0222EE0AC2
:102FC0000CFB06F696420BD9CCF500650CEB5515BB
:102FD00007EB08187D804FF0080E08F5827743E66E
:102FE000ACEB5C1C921BA7F802C04FF0100E4FF424
:102FF000807907F50177AE1B38E6A5EB5515A6EBF2
:103000000806A2EB0802ADB20CF1010C4DE6A7EBED
:103010005717A6EB0C06A2EB0C02BFB2013579E6FE
:10302000ACEB5C1CA6EB0906A2EB09021FFA8CFCB8
:1030300008F1010845EA0A05ABE6053FB6F1807FD5
:103040003EBF13F8015B360245EA02227608921B66
:10305000D51705F1010E013F05EA06050EEB4C0CF4
:103060002A44EBD1B6F1807F3CBF13F8017B3602D6
:103070004FEA0C15B4F846C638BF47EA0222F70AF1
:103080000CFB07F7974204F2446E40F2AC80CCF59B
:1030900000660CEB56161FFA86FC0226B7F1807FFD
:1030A000A4F846C63EF816A04FEA460C0EEB4609B9
:1030B0003EBF13F8016B3F0246EA0222FE0A0AFBFA
:1030C00006F6964240F29980CAF500680AEB581855
:1030D0001FFA88F8A9F80080B6F1807F3CBF13F88A
:1030E000017B36023EF81CA038BF47EA0222F70AED
:1030F0000AFB07F797424FEA4C080EEB4C0940F2E7
:103100008780CAF5006C0AEB5C1C1FFA8CFCB7F1D7
:10311000807FA9F800C038BF13F8016B3EF8189003
:103120003CBF3F0246EA0222FE0A09FB06F696422F
:103130004FEA480C87BFC9F5006809EB5818A9EB9E
:10314000591845F008058FBF1FFA88F8921B1FFA1F
:1031500088F8BE1B6F1C2EF80C807FF422AE009CFA
:10316000ABF10C0B04F589740B94DDE902A4029415
:10317000049C03940A9C0494B6F1807F3CBF13F82E
:10318000014B3602C0E906360B9B38BF44EA0222E7
:103190008364019B0262C362029B4162C363039B1F
:1031A000C0F838A00364049BC0F834B04364036BD8
:1031B00023B9C368019A934298BF03630899FFF744
:1031C000C7FB436A089A9342836C07D282690D99C0
:1031D0008A4203D2B3F5897FFFF4E9ABB3F5897F67
:1031E0003CD8002025E6ACEB5C1CD21B1FFA8CFC03
:1031F000F71B45F00105032650E7AAEB5A18921B6E
:103200001FFA88F80CF1010C45F00205BE1B61E7BE
:10321000AAEB5A1CD21B1FFA8CFC08F1010845F0DE
:103220000405F71B73E7079FC2E5DDE902A50295D8
:10323000049D03950A9D0495C4E5B9460CEB070E61
:10324000059F17F80580069F09F8018B0135AF42ED
:1032500008BF0025CE45F3D1614453E44FF4897390
:103260008364BEE74162E3E52DE9F047D0E9075307
:1032700001278468D0F82C80A740D0F834C0013FE3
:10328000066907EA080707EB0C1EB5F1807F36F8E0
:103290001E900A4407D2914280F0DC8111F8014B64
:1032A0002D0244EA0323EC0A09FB04F4A34278D27A
:1032B000056B06F66C6658EA050519D0D0E900E7FB
:1032C0000125BD40013D05EA080505FA0EF7456AEE
:1032D000D0F8148005B9856A013D18F80550CEF183
:1032E000080E45FA0EF53D444FF4C06707FB05662E
:1032F000BCF1060F20D801204000B4F1807F375A7E
:1033000007D2914280F0A68111F8015B240245EAC0
:103310000323E50A7D43AB4229BF01302C46641BE1
:103320005B1BFF28E8D90120B4F1807F80F0228167
:10333000914228BF00201DE1876BD0F824C0456969
:10334000BC45ACEB070E2CBF0027876A05EB0E00CF
:1033500010F807C001204FF480774FEA4C0C07EAC1
:103360000C0E3D187544B4F1807F36F8158007D2F5
:10337000914280F06F8111F8015B240245EA03233A
:10338000E50A08FB05F54000AB422BBF01302C4697
:10339000774627EA0E0724BF641B5B1BFF28DCD996
:1033A000C1E7281B0CF1C00CB0F1807FA3EB040334
:1033B0004FEA4C0436F81CC007D2914280F04A8193
:1033C00011F8015B000245EA0323C50A0CFB05F571
:1033D000AB4280F0A08002204FF0000E06F2646C39
:1033E000B5F1807FBCF8008007D2914280F0328135
:1033F00011F8014B2D0244EA0323EC0A08FB04F404
:10340000A34280F0EB800CEB071C00270CF1040CAE
:103410004FF008094FF001084FEA4808B4F1807FE7
:103420003CF808A007D2914280F0148111F8015BAA
:10343000240245EA0323E50A0AFB05F5AB4229BF4E
:1034400008F101082C46641B5B1BC845E4D3BEF1A0
:10345000030F3FF669AFA7EB09074744032F88BF67
:103460004FF49C674FF001059CBFFF0107F55877AB
:103470006D0006EB050CB4F1807F3CF807E007D245
:10348000914280F0E78011F801CB24024CEA03233B
:103490004FEAD42C0EFB0CFC634529BF0135644672
:1034A000A4EB0C04A3EB0C033F2DE1D9403D032D0D
:1034B0007FF63AAF0D2D4FEA550700F2B18005F0C7
:1034C000010C013F4CF0020CC5F100450CFA07FC61
:1034D00005F2AF25654406EB45064FF0010C4FEAB7
:1034E0004C0CB4F1807F36F80CE007D2914280F0AA
:1034F000B18011F8015B240245EA0323E50A0EFBC3
:1035000005F5AB4231BF2C46641B5B1B0CF1010C73
:10351000013FE4D108E7401B3444B0F1807FB4F8A8
:1035200018C0A3EB050307D2914280F0938011F8F5
:10353000015B000245EA0323C50A0CFB05F5AB421B
:1035400022D20EF1F00EB5F1807F36F81E4006D281
:1035500091427FD211F8010B2D0240EA0323E80AC1
:103560006043834208D2B0F1807F71D2914234BF70
:1035700003200020BDE8F0872D1A1B1A03204FF00E
:103580000C0E06F6682C2BE7401BB0F1807FB4F8D8
:1035900030C0A3EB050306D291425BD211F8015B68
:1035A000000245EA0323C50A0CFB05F5AB42E5D34F
:1035B000401BB0F1807FB4F84840A3EB050306D26E
:1035C000914247D211F8015B000245EA0323C50A84
:1035D0006543AB4224BF5B1B451BCFE72D1BB5F1F9
:1035E000807FBCF80280A3EB040306D2914231D263
:1035F00011F8014B2D0244EA0323EC0A08FB04F402
:10360000A34205D20CEB071707F5827C0827FFE6DB
:103610001B1B10274FF480790CF5017C2C1BF9E65D
:10362000053FB4F1807F06D2914213D211F8015BBD
:10363000240245EA032364081D1BED0F013D2540CC
:10364000013FA3EB0503ECD1042706F2446644E7EF
:1036500003208FE700208DE700230122C0E90B3310
:10366000C0E9123243628365026570472DE9F74F66
:103670009846002704469DF83030D8F80060C8F816
:10368000007000938B461546FFF762F90D9B1F7083
:10369000A36CB3F5897F09D1236A13B901230D9A6D
:1036A0001370206A003818BF01201EE0E36C8BB154
:1036B000A36D5EB3042B1BD994F85C30002B40F053
:1036C000D780D4F85D20E36412BA22624FF0FF3253
:1036D000A365E261636A5B4555D3A36CD3B9236AE2
:1036E000F3B9042300200D9A137003B0BDE8F08FE6
:1036F0005A1CA26515F8012B234483F85C20D8F8E6
:103700000030013E0133C8F80030D1E7042BD3D894
:103710000323E7E7009B002B40F0A7800223E1E7AB
:10372000009B002BFAD00123226D9AB1D4E900212D
:1037300011444FF440728A400021206902F236722F
:103740008A4222D80122C4E91022C4E90E220022B2
:1037500062632265A76D002F68D1132E1BD943B376
:10376000324629462046FFF77FFDF0B9324629460A
:1037700004F15C0000F0D1FAA665D8F800303344BB
:10378000C8F80030C4E70023CEE74FF4806720F884
:1037900011700131D4E73246294620460193FFF7E4
:1037A00063FD019B0028E1D00BB102285DD12A46C0
:1037B00002E0A6F114022A4459462046A561FFF70B
:1037C000F1F8002854D1A369D8F800205D1B2A44E1
:1037D000C8F80020761B1D465AE715F80910013776
:1037E000D15509F10109132F25D9A76504F15C0A08
:1037F00093BB524659462046C4F818A0FFF7D2F8AA
:10380000B0BBA369A3EB0A039F4236D3FA1A9145D2
:1038100033D3D8F8001009EB0302D31B1944374403
:10382000C8F800102B44BE1AA065D4E74FF0000979
:1038300004F15B02D7E7B145CFD104F15C0A3A4607
:1038400051462046A7650193FFF70EFD019B88B9FD
:10385000D8F800304B4493E73A4651462046FFF7EC
:1038600003FD0028F4D00228C3D002230D9A137060
:1038700001203AE7002BBCD0F5E70B2035E72DE916
:10388000F04F89B0DDF848809A469DF84C300446E8
:103890000493D8F800308B4602930023164617682D
:1038A0001360C8F80030029B149A0793D4E90931D9
:1038B0008B4204BF00236362656A20464B1BBB42F8
:1038C00032BF0023049B7919CDE90032524607AB81
:1038D000FFF7CCFE079A029B61699B1A0293D8F806
:1038E000003003901344C8F80030636A5846A3EBD5
:1038F0000509294492444A46059300F00EFA059BB7
:10390000CB44ED1A33682F444B443360039B23B9F7
:10391000B9F1000F01D0002FC5D1039809B0BDE85F
:10392000F08F10B504464B6808462169984700237C
:10393000236110BD70B54FF440751646D1E90032D1
:1039400013449D400369044605F2367513B1436D77
:10395000AB420ED031462046FFF7E3FF30463368D6
:10396000690098472061B0FA80F040096565400021
:1039700070BD0020FCE738B504460D46FFF7D1FFC7
:103980006B682846616998470023636138BD042A43
:1039900001D804207047D1F80130B3F5805F38BFFB
:1039A0004FF48053C3600A78E02AF2D80923B2FBAF
:1039B000F3F303EBC301521AD2B202600522B3FB48
:1039C000F2F2826002EB82029B1ADBB243600020BB
:1039D000704770B5D1E90152AA4205D290F8403043
:1039E0002B449B1A402B10D9002012E00A6890F853
:1039F0004040D65C90F841200133224402F03F025F
:103A0000013486548B6080F840408B689D42EDD82D
:103A1000012070BD2DE9F84390F840C017469E463E
:103A2000D1E90123089DD21A6244954204460E460C
:103A30009DF824909DF828800AD9FFF7CAFF002836
:103A400067D1142341F2020084F84630BDE8F883C0
:103A5000754555D8002394F840200AB19D4235D1D0
:103A6000D6E90121914201D29D4241D89D424DD1DA
:103A700029463846D4F88820FEF77EF9C4F8880035
:103A8000B9F1000F04D02A463946E06C00F070F816
:103A900094F84330B8F1000F06D08BB12B463A466C
:103AA0003946A06C00F053F894F8433043B1E36D0D
:103AB000A26D2B449342E36524BF002384F8433076
:103AC000636D41F203002B446365BFE794F8412026
:103AD000A25CFA5494F841200133013202F03F0213
:103AE00084F8412094F84020013A84F84020B2E75D
:103AF0003268525CFA54B26801330132B260AFE707
:103B000041F20100142384F846309FE741F202009D
:103B1000F8E700209AE749BA89B24840C0F3031297
:103B2000424013B283EA0233580100F4FF509BB2C3
:103B30005840704738B5044645181046AC4200D18D
:103B400038BD014614F8010BFFF7E5FFF6E71FB596
:103B50000C46194600F14803CDE90142009300F1FB
:103B6000440200F158032030FEF708FD04B010BDF8
:103B700000F00CB8014600F016B86822002100F0F1
:103B8000C4B803460020C3E90000704707B500F140
:103B900028030190009300F108030020FEF700FACB
:103BA00003B05DF804FB02460B4600F12801083023
:103BB000FEF754BAFEE770B5054614460E4600F00F
:103BC000FBF82B685C4034405C402C60BDE87040E2
:103BD00000F0EDB8036BDA0702D503695B06F9D490
:103BE000704710B5FFF7F6FF0122044600F50053B9
:103BF0001A63236B9B07FCD40B794A881B0243EAA8
:103C000082438A7A13434A7843EA8213CA7A43EAA0
:103C1000C2130A7B43EA42134A7B43EA02138A7BBC
:103C200043EAC203CA7B43EAC2238A7943EA0243D6
:103C3000CA7943EA42430122636004F580531A6360
:103C40000A780AB90223E360002363624B79087A99
:103C50001B01497A43EA80030B43A3600AB10123A5
:103C6000E36010BD436813B9416070475B685A68F0
:103C7000012AFBD1596070472422002100F045B889
:103C800070B515460E4624220021044600F03DF88A
:103C900025F04003802B02D0B5F5807F08D1204667
:103CA000314640F8045BEA0800F037F8002070BDA8
:103CB0006FF01F00FBE70139024410B5904201D1BB
:103CC000002005E0037811F8014FA34201D0181B32
:103CD00010BD0130F2E7884210B501EB020402D9B1
:103CE0008442234607D8431EA14208D011F8012B75
:103CF00003F8012FF8E7024401468A4200D110BDC3
:103D000013F8014D02F8014DF7E7024403469342D0
:103D100000D1704703F8011BF9E70A44431E9142A2
:103D200000D1704710B511F8014B914203F8014FD3
:103D3000F9D110BD4FF48062024B9A66BFF34F8FEA
:103D400000207047009000404FF48062014B00203B
:103D50009A66704700A0004008B5C0B14FF4806279
:103D60000C4B9A66BFF34F8F00F061F84FF0984309
:103D70005A6CD202FCD54FF48062586D064B10F499
:103D800070209A6604D0BDE8084000F019B82120E0
:103D900008BD00BF0090004000A000404FF09843D5
:103DA0005A6CD202FCD5586D00F47020704710B9DF
:103DB00062B6BFF36F8F7047EFF3108072B6704733
:103DC000B0F5802F22D010D8B0F5003F20D007D812
:103DD00018B3B0F5803F08BF482018BF01207047D6
:103DE000B0F5403F08BF2C20F7E7B0F5302F11D0D9
:103DF00007D8B0F5E02F0FD0B0F5202F08BF102066
:103E0000EBE7B0F57F0F08BF0620E6E74B207047D1
:103E10002A2070471120704721207047036A042B25
:103E20009FBF00EB83020133D16003627047036AD6
:103E3000052B14D84FF09842116CC902FCD50433FD
:103E40009B0013650168103B11604168116050F8D8
:103E5000081F11604FF098420344984200D1704708
:103E600050F8041F1160F8E7836813B98160704748
:103E70005B685A68012AFBD1596070470000000056
:103E8000F8B500BFF8BC08BC9E467047F8B500BF47
:103E9000F8BC08BC9E46704700000000BD27000823
:103EA00000000000050700080D0A4765636B6F20DE
:103EB000426F6F746C6F616465722076582E595929
:103EC0002E5A5A0D0A312E2075706C6F616420676E
:103ED000626C0D0A322E2072756E0D0A332E20652B
:103EE000626C20696E666F0D0A424C203E20000D08
:103EF0000A4661696C656420746F20626F6F740D8F
:103F00000A000D0A66696C65206572726F72203056
:103F100078000D0A626C6F636B206572726F72209D
:103F20003078000D0A53657269616C2075706C6F92
:103F300061642061626F727465640D0A000D0A533A
:103F4000657269616C2075706C6F616420636F6D60
:103F5000706C6574650D0A000D0A626567696E20F4
:103F600075706C6F61640D0A00B814B6F1E0CFF3A0
:103F7000ADB7DD25C9FA79B71300000013B779FA98
:103F8000C925DDB7ADF3CFE0F1B614B801020000EA
:103F900000000000AC4100004000000001000103EF
:103FA0000000000000000000000000000000000011
:103FB0000000000000000000000000000000000001
:103FC00000000000000000000000000007B0CD5E0F
:103FD0000200000001000103B04100000060000881
:103FE00000000808F10410003D28000841280008DE
:103FF00099070008612800089128000800000000C7
:10400000C12800083729000800000000D509000871
:10401000CD0900080400000700000D1013001A204D
:104020002630384050000000FD0707FD4912000807
:1040300079120008391300081D130008EB17A603B6
:104040000201000003000000FA0606FA0F04000057
:1040500003000000F40A0AF4050500000100000056
:10406000EB17A65E0A06000001000000F50909F53D
:104070000307000001000000F60808F6060800002B
:1040800000000000FE0101FE080800000000000022
:10409000FD0303FD0C08000000000000FD0707FD04
:1040A0001308000000000000F90707F910090000DC
:1040B00002000000F30B0BF3110A000003000000E4
:1040C000F70A0AF7120B000003000000FC0404FCCE
:1040D0000D0C000003000000800000000000000044
:1040E00000000000000000000000000000000000D0
:1040F00000000000000000000000000000000000C0
:1041000000000000000000000000000000000000AF
:1041100000000000000000006A09E667BB67AE858A
:104120003C6EF372A54FF53A510E527F9B05688C99
:104130001F83D9AB5BE0CD194441000834600020F7
:104140001A000000F00F100300000000325E002093
:10415000130000000900000000010000020200003E
:1041600013000000F00F100300000000325F002079
:10417000130000000900000000020000010100001F
:10418000D3FFFFFFF07F1030B25D00200000000081
:104190000000000000C00540290000001D110008BB
:0C41A0005511000815020008ED01000890
:1060000008040020E1BF000865B7000865B7000874
:10601000BDBF000865B7000865B7000865B7000890
:1060200065B7000865B7000865B70008DDF5020828
:1060300065B70008FC1B030881F502084318030834
:10604000C5DE000865B7000865B7000865B7000839
:1060500065B7000865B7000865B7000865B70008B0
:1060600065B70008CD36020865B7000865B70008B7
:1060700065B7000865B7000865B7000865B7000890
:1060800065B7000865B700080DF3000865B700089C
:1060900065B7000865B7000899F1010865B7000801
:1060A00065B7000865B70008E9B70008C5B700087C
:1060B00065B7000865B7000861CA02081DD5020867
:1060C000BFEF0208BBEF0208D1CC0208D5EF0208EF
:1060D000C3EF0208EDD40208C7EF020881D5020819
:1060E000B9D5020865B7000865B7000865B70008AC
:1060F00065B70008D1F1000865B7000865B700086A
:1061000065B7000865B7000865B7000865B70008FF
:1061100065B7000865B70008E935020865B70008EB
:1061200065B7000865B7000865B7000865B70008DF
:1061300065B7000865B7000865B7000865B70008CF
:1061400065B7000865B7000865B7000865F800087E
:1061500065B7000865B7000865B70008A5B2020872
:1061600065B7000865B70008AFEF0208B5EF020891
:10618000F0B5114A114C124E00F00105E3695F07AA
:1061900013D40DB9334213D103EA00078F4207D15C
:1061A0000B4A1A40002A0CBF00206FF00100F0BD1E
:1061B000013AEBD16FF00200F9E74FF0FF30F6E75C
:1061C0006FF00100F3E700BF8096980000000350D5
:1061D000020001002DE9F84F16464FF48032274B9C
:1061E000274D9A66EB69074603EA020841F67133C8
:1061F0000122EB63234BDFF89490DA600EB930464E
:1062000029E007F5005404EA09046F61E41BEB6917
:10621000B44228BF34465B072DD48B465BF8043B61
:1062200001EB040AAB61D3450ED1042300212120E8
:106230002B61FFF7A5FF70B92120FFF7A1FF50B92F
:1062400059462744361BD9E708210846FFF798FF2F
:1062500068B104232B6101220B4BDA60B8F1000F07
:1062600003D00022A3F50053DA63BDE8F88F5BF892
:10627000043BAB61D7E74FF0FF30ECE700900050F4
:1062800000000350001003500020035000E0FFFF07
:1062900000000000000000000000000000000000FE
:1062A00022000000B577010819000000B5B101080F
:1062B0001500000019BF01081000000095BE01087C
:1062C000120000005996010813000000C18D01085A
:1062D00011000000A99B01080E000000E9B00108B0
:1062E0000D00000051C0010805000000DDA60108F6
:1062F000040000006DA701080F00000029760108C6
:106300001A000000A9D001080B000000017D01085F
:106310000A000000EDAD0108090000008D9F010892
:106320000800000079CE010803000000B5C2010892
:1063300002000000F57C01080600000099E9010850
:106340000700000055DD01080100000095E9010883
:106350002300000085E90108280000006FE901081A
:10636000270000006DE9010826000000F17C01080B
:106370002000000055BE01081F00000031C20108C6
:106380001600000089AA0108280000007BE9010826
:106390002700000071E9010826000000F37C0108D5
:1063A0002A0000004776010802000000FB7C01087B
:1063B00029000000457601082300000069800108DB
:1063C0000100000097E9010803000000437601087E
:1063D0000000000041760108D8000000C1730008E9
:1063E000D700000085730008DF000000FD7C000876
:1063F000DE000000DD7C0008BF0000000B67000825
:10640000A8000000096700084900000007670008AD
:106410000A000000056700086B0000001D730008FB
:106420006A00000069980008690000009D97000854
:10643000D60000008D9700083C000000819C0008F9
:10644000270000000D9700081C000000E172000802
:1064500098000000B97C000865000000DB720008AD
:10646000D4000000D5720008D3000000DD670008EA
:10647000D2000000AD720008BD000000AB7C000837
:106480000B000000E998000808000000E1960008F1
:1064900006000000B9690008600000007996000855
:1064A00005000000619C0008E8000000B59E00089F
:1064B000E70000009D7C0008DD0000003D9600081C
:1064C000DC0000005D9E0008DB0000009D720008FB
:1064D000DA000000D59D0008C000000057720008D7
:1064E00002000000299D0008A50000004772000876
:1064F000A60000002D960008BE000000559500087B
:10650000A400000039950008A0000000DD6E00081E
:10651000A200000081940008030000008593000899
:106520000900000069690008150000008D7000086E
:106530009300000031930008920000008D92000843
:1065400090000000FD9100088000000049700008E4
:1065500063000000697C000862000000C59100082B
:1065600061000000459100085600000039690008EC
:10657000540000006590000857000000ED8F0008EF
:1065800055000000698F000858000000B98E00080F
:1065900051000000218E000847000000AD8D00086A
:1065A0004F000000118D0008460000008D8C00088F
:1065B0005F000000558C00085E0000001D8C000884
:1065C000500000006D8B00084D000000058B000896
:1065D0003F000000A98A00084B000000698A0008FB
:1065E0004A0000006D89000842000000118900087F
:1065F000410000000D70000868000000BD88000820
:10660000480000001588000853000000618700085A
:1066100028000000916F00082A000000D57E0008C5
:106620002C0000009D7E0008290000000367000880
:106630003D000000716F00082E000000396F000857
:1066400024000000057C000823000000717E000883
:1066500022000000E57B000821000000417E0008C8
:1066600020000000FD6800086C000000B9860008EA
:10667000AC000000E9850008AB0000009184000830
:10668000A9000000E583000816000000B18300089F
:1066900014000000F982000813000000698200085D
:1066A00012000000EF81000810000000E1810008E6
:1066B0003A000000B5680008390000006981000850
:1066C0003B000000CD6D0008380000005168000854
:1066D0003700000031810008D9000000997B0008D4
:0866E00007000000FD6900083D
:1066F000013800D0FCE770476FF01B00704770470F
:10670000704770477047704770477047064B1B686B
:106710004BB11B78032B01BF044AD2F8243143F05C
:106720000043C2F824317047EC30002000000350D1
:106730007047704738B5064D04462B78834205D024
:10674000044B042158682AF0EBFD2C7038BD00BFC3
:1067500038940020EC300020094A937A6BB1013B59
:106760009372137A0133DBB2082B28BF0023137214
:106770000023012082F85B35DCE7537AF7E700BF9E
:10678000EC3000200B4A92F85E3583B1013B82F871
:106790005E3592F85C350133DBB2082B28BF00234D
:1067A00082F85C350023012082F85B35C2E792F85D
:1067B0005D35F5E7EC30002010B5074CC378084490
:1067C00084F8AF3A0379012084F8B03AFFF7B2FFBA
:1067D000002384F8B13A10BDEC300020094B5A690F
:1067E000002A09DB5A6AD207FCD40122064B5A6000
:1067F000044A53689B07FCD40022044B012083F811
:10680000B22A97E70040005B0060005BEC3000209C
:10681000024B4FF4807118682AF082BDCC0B002027
:1068200008B5131E40F2FF7218BF0A4601211FF07F
:1068300075F8BDE8084002207CE7034B0246034997
:1068400093F8930BECE700BFEC300020200B002006
:10685000164B1B681A69164B9169080E1870080CC4
:106860005870D970080AD1699870080E1871080C10
:106870005871D971080A116A9871080E1872080CBB
:106880005872D972080A516A9872926A080E18737F
:10689000080C5873D973080A110E1974110C9873E7
:1068A00059741420110A9974DA74C6E71C0B00207D
:1068B000200B00200F4B1B681A690F4B1168090A47
:1068C0001970116859705168080AD97091689870E8
:1068D0005971080AD1681871D971080A1169526989
:1068E0009871080A187259720C20110A9972DA729A
:1068F000A3E700BF1C0B0020200B00200B4B1B68E4
:106900009B699A68D9880A4B100E1870100C587041
:10691000DA70100A074A98701278022A09BF052017
:1069200004200A0A1A711954013086E71C0B002052
:10693000200B0020FC930020084B09491B680878B5
:106940009B6902285A889978064B09BF120A0120D0
:106950001A70597018BF19706FE700BF1C0B002028
:10696000FC930020200B0020104B1B685A69104B31
:106970009179063303F8061CD17803F8051C1179C8
:10698000527903F8041C03F8032CAB2203F8022C01
:10699000CD2203F8012C074A02F1100152F8040B32
:1069A0008A4243F8040BF9D1162046E71C0B00205D
:1069B000200B0020941C030810B40A240D4A0E4931
:1069C000D2F8003BB3FBF4F30B70D2F8483BB3FBB7
:1069D000F4F34B7003795DF8044B03EB83035B0026
:1069E000C2F8003B4379022003EB83035B00C2F84B
:1069F000483B22E7EC300020200B0020F0B40126B9
:106A00000F4A104D1049AA420DD3104B10491A6B72
:106A1000B2F5803F82BF9A7B42F020029A73C07821
:106A20002822F0BCFCE612F8083B013BDC100F5DAD
:106A300003F0070306FA03F33B430B55E3E700BFFC
:106A4000D8630008E86600084194002038940020CC
:106A5000399400202D4C83B5054601224FF49670E1
:106A600004F6484108F0A4FD94F8483C022B03D8F2
:106A700084F8493C1CF0A4FD0026254BA0221F6889
:106A8000244B00211D60244D244B28466760C4F828
:106A90004C7CC4F8843C27F04FFC214B2F631E70C4
:106AA0000C2385F8253005F13403AB62052385F806
:106AB0002C30202301270193281D019B2AF0E5FD9E
:106AC0003246314630462F772D621DF0FFFD3246AB
:106AD000314638461DF0FAFD94F8883C0020062B1C
:106AE0004FF006030F4A87BF84F8883CC4F88C2C0B
:106AF000C4F88C2C84F8883CC4F8900CFFF71AFE7C
:106B0000094C20461AF03EFFFBE700BFEC300020A6
:106B1000080600201C0B00207C0A00208094002026
:106B20000C0E0020BC1C0308743D0020044A054BD9
:106B300092F8942C5870022112201A701AF082BF19
:106B4000EC300020200B002010B4234C6270234A4C
:106B5000217092F8952C002A3CD0002B3AD00A21C3
:106B60001A68B2FBF1F2120AA2701A68B2FBF1F2D3
:106B7000E2701A791A2122715A7962719A79A27196
:106B8000DA79E2711A7A22725A7A62729A7AA27267
:106B9000DA7AE2721A7B22735A7B62739A7BA2734F
:106BA000DA7BE2731A7C22745A7C62749A7CA27437
:106BB000DA7CE2741A7D22755A7D62759A7DA2751F
:106BC000DA7DE2751A7E5B7E227663765DF8044B91
:106BD0001AF038BF0221F9E7200B0020EC3000202A
:106BE0000B460349024691F8961C1320ACE700BF00
:106BF000EC3000200B460349024691F8961CA92070
:106C0000A2E700BFEC3000200B460349024691F892
:106C1000971CAC2098E700BFEC300020044A054BDD
:106C200092F8992C5870022114201A701AF00ABF99
:106C3000EC300020200B0020044A054B92F8992CE0
:106C400058700221AB201A701AF0FCBEEC30002004
:106C5000200B0020044A054B92F89A2C5870022110
:106C600048201A701AF0EEBEEC300020200B0020F5
:106C7000044A054B92F89B2C5870022168201A7028
:106C80001AF0E0BEEC300020200B0020044B012164
:106C900093F89C2C034B42201A701AF0D3BE00BF0D
:106CA000EC300020200B002070B41E4D95F8B02A67
:106CB000002A35D01C490378097885F8B13A0229B1
:106CC0000CBF01240024194B017A1A7002785A7003
:106CD000428803BF120A9A7042889A7008BFDA701D
:106CE000C4F1A402D2B2914288BF0272027A234454
:106CF000DA70426892B9017A95F8AF0A04312144FA
:106D0000C9B270BC1AF09EBE46680131B65C1A4426
:106D10001671067ACAB29642F6D8ECE70021F8E777
:106D200070BC7047EC300020FC930020200B00204A
:106D30001FB5094B8DF804001B6801A89B69DB880F
:106D4000ADF80630002302938DF80C30FFF7ACFF4E
:106D500005B05DF804FB00BF1C0B0020044A054B86
:106D600092F89D2C5870022157201A701AF06ABEB2
:106D7000EC300020200B0020044A054B92F89E2C9A
:106D80005870022154201A701AF05CBEEC300020BA
:106D9000200B0020044A054B92F89F2C58700221CA
:106DA000A2201A701AF04EBEEC300020200B0020FA
:106DB000044A054B92F8A02C58700221BE201A708C
:106DC0001AF040BEEC300020200B002008B51AF06D
:106DD000A5FBBDE8084004202FE510B40D4B0E4A7A
:106DE000587092F8A14C92F8950C1C7080B179B152
:106DF000023301F11C0051F8044B814243F8044B6B
:106E0000F9D11E2192F8A20C5DF8044B1AF01ABEBB
:106E10000221F7E7200B0020EC30002010B40D4ACF
:106E20000D4B92F8A34C92F8952C1C7058707AB1C7
:106E300071B1023301F11C0251F8040B914243F885
:106E4000040BF9D11E2146205DF8044B1AF0FABD5F
:106E50000221F8E7EC300020200B002010B40D4A8E
:106E60000D4B92F8A44C92F8952C1C7058707AB186
:106E700071B1023301F11C0251F8040B914243F845
:106E8000040BF9D11E214F205DF8044B1AF0DABD36
:106E90000221F8E7EC300020200B002010B40D4A4E
:106EA0000D4B92F8A54C92F8952C1C7058707AB145
:106EB00071B1023301F11C0251F8040B914243F805
:106EC000040BF9D11E2147205DF8044B1AF0BABD1E
:106ED0000221F8E7EC300020200B002070B5144DA3
:106EE0000379067AA5F8603043790446003B18BF61
:106EF0000123232E28BF232685F86230837923229D
:106F000085F86330C379002185F86430094B85F832
:106F10006860184627F010FA324604F1090127F09C
:106F200008FB05F160032B670120BDE8704001E418
:106F300038940020923D00200C4B07B51B6BB3F535
:106F4000803F05D9012003B05DF804EBFFF7F2BBE9
:106F500000220DF1070104308DF807201AF0CAF85D
:106F60009DF8070003B05DF804EB66E43894002058
:106F7000002307B501220DF1070104308DF8073019
:106F80001AF0B8F89DF8070003B05DF804EB54E47C
:106F900010B54378042B23D903794479232B0DD1E1
:106FA000202C28BF2024032123460E4A0E480068C7
:106FB00019F050F82046BDE810403EE4432B06D1BE
:106FC000202C28BF202402212346064AEEE7702BFE
:106FD00006D1FF22034B012C28BF01241A70E9E7D8
:106FE0000024E7E7200B0020EC3000200246064892
:106FF00008B500210423D0F8CC0C19F02BF8B0FA16
:1070000080F0400908BD00BFEC30002007B5002229
:107010008DF807200B4A034612780079022A08D11E
:1070200098889DF8073040BA0133DBB280B28DF802
:1070300007301AF02BF8072003B05DF804EBFFF7D8
:10704000FCBB00BFFC93002008B50F4B02461B7829
:107050000079022B16D193885BBA98B201231A44A7
:1070600091795379003918BF0121003B18BF0123E2
:10707000DB0143EA81111AF0F1F9BDE808401D2057
:10708000FFF7DBBB0023EAE7FC9300200B4B30B596
:107090001B680B4D5C6985B02279E3780C21009266
:1070A0002846084A1EF006FD03900D20E3792B7355
:1070B00005B0BDE83040FFF7C0BB00BF1C0B00208F
:1070C000200B0020501C030870B5ADF5007D044670
:1070D0000D46164610494FF40072684627F029FA0B
:1070E0004FF400726946C82008F062FA88B9324647
:1070F00029460DEB040027F01CFA4FF40072694694
:10710000C82008F05FFAB0FA80F040090DF5007D64
:1071100070BD0020FAE700BFD41C030830B500247E
:1071200085B005460922682001A9CDE901448DF802
:107130000C4008F03DFA58B90922682001A98DF8E1
:10714000045008F03FFAB0FA80F0400905B030BDB5
:107150002046FBE77FB5002406460D46092268203D
:1071600001A9CDE901448DF80C4008F021FA68B975
:107170000922682001A9ADF80560ADF8075008F0B4
:1071800021FAB0FA80F0400904B070BD2046FBE758
:1071900030B5002485B005460922682001A9CDE953
:1071A00001448DF80C4008F003FA58B90922682010
:1071B00001A9ADF80A5008F005FAB0FA80F04009CC
:1071C00005B030BD2046FBE730B5002485B005464C
:1071D0000922682001A9CDE901448DF80C4008F08E
:1071E000E7F958B90922682001A98DF8095008F07B
:1071F000E9F9B0FA80F0400905B030BD2046FBE760
:1072000010B54FF40074ADF5007D2246684605497F
:1072100027F08FF922466946C82008F0D3F90DF50A
:10722000007D10BDD41C03081FB50023CDE9013338
:107230000123092201A968208DF80C3008F0C2F959
:1072400005B05DF804FB08B51AF0D6F8BDE80840B3
:107250001D20FFF7F2BA37B504790F4D012C28BF76
:10726000012428460DF1060321460DF1070219F00D
:10727000D5FE9DF806009DF8073005F8010C033097
:10728000DB01C0B205F8033C05F8024C03B0BDE8D1
:107290003040FFF7D2BA00BF230B002008B519F029
:1072A0008FFEBDE808400220FFF7C7BA0123064A57
:1072B000012082F8B23A054A5269002AA4BF044A62
:1072C0005360FFF737BA00BFEC3000200040005B8E
:1072D0000050005B00791CF0F7B800791CF0F4B89E
:1072E000034610B55B780079032B13D990B12028A1
:1072F00028BF20200023084C237063701AF01CF86C
:1073000010B10123607023700230C0B2BDE810409C
:10731000FFF793BA0220EDE7200B002007B500220B
:107320008DF80720154A034612780079022A08D101
:1073300098889DF8073040BA0133DBB280B28DF8EF
:10734000073000230DF105020DF106018DF806301E
:107350008DF805301AF022F860B90220084B9DF82C
:1073600005201A709DF806205A7003B05DF804EBF2
:10737000FFF763BA03B05DF804FB00BFFC93002085
:10738000200B002038B5D0F80550D0F8094000791E
:107390002ABA20B9002319461CF050FF01E0012849
:1073A000F8D035B12CB1054821BA1BF091F808F09E
:1073B00031F9BDE838400120FFF7BCB9BC3D0020E1
:1073C00008B5007920B9002211461CF02EFD01E01D
:1073D0000128F8D0BDE808400120FFF7ABB907B598
:1073E000074B08480193C0F8143D002301A91A4631
:1073F000D0F8180D29F0B2FA03B05DF804FB00BF15
:1074000035860108EC3000200C4B07B50146D3F857
:107410004C0C78B100230193012301AA03FA01F176
:107420002AF084F8019B2BB14FF0E0234FF08052FB
:10743000C3F8042D03B05DF804FB00BFEC3000205E
:107440000122024B042083F8FC2ADDE7EC30002007
:107450000122024B042083F8442BD5E7EC300020B6
:10746000054B93F88D2B8A4204D80022032083F821
:107470008D2BC9E7704700BFEC30002008B51AF02B
:1074800073F818B1BDE808400320BDE708BD00232C
:1074900007B501930F4B104A5B68FE28C3F308033E
:1074A0000CBF4FF480414FF40051106823B903B072
:1074B0005DF804EB29F034BF01AA2AF037F8019BEC
:1074C0002BB14FF0E0234FF08052C3F8042D03B0EE
:1074D0005DF804FB00ED00E0CC0B0020002307B5B5
:1074E0000138019307280BD8DFE800F0180A040AD6
:1074F000150A0A1B012101AA0C4B18682AF016F87C
:10750000019B2BB14FF0E0234FF08052C3F8042DC4
:1075100003B05DF804FB402101AAEDE7042101AAB4
:10752000EAE74FF4004101AAE6E700BFCC0B0020D8
:107530002DE9F84F01240027866B90F83030356A2A
:107540009C4028F0F3FE2B682A692343DFF8F0A063
:10755000DFF8F08005F10C0B2B6093452B680DD103
:1075600023EA07032B6029F0D5F8012196F82C3087
:10757000306B9940BDE8F84F29F0D2BED2E900093E
:1075800020F07F4110F0806F01EA030402D11CB9A2
:107590004A46E2E7A142FBD1C00148BF0F4325495B
:1075A00043F002430968D2E9034113604B689068D5
:1075B0009A424FF00003C9F80800C0F8049008BFD1
:1075C000486013610B68013B0B6028F0EFFFD4E9C2
:1075D0000231626999604B605368201D83421368D1
:1075E00008BF5160013B13601422E16ADAF80030F1
:1075F0004A4308EB020C9942DCF8043088BFCAF811
:107600000010D3F808E0A360C4F80CE0CEF8040042
:10761000986058F80230C4F814C0013348F80230BA
:10762000054B1B68DB6A994282BF0122034B1A603B
:10763000AEE700BF100E002008060020E405002081
:10764000040600200C0600202DE9F341294DD5F851
:107650001E4DB5F81C7D24BA631E03330AD905F606
:107660001E501AF0F1FA0121044605F61E5011F0E1
:1076700011FA0127204EA5F81C7DC5F82C4DA5F860
:107680002A7D0AF051FEB36F4FF4800293F8008018
:107690000023A5F8347DC5F8384DCDE90023D6F890
:1076A000800027F0A5FD95F8643D012B0DD1FF2149
:1076B000D6F8800027F0C0FE55222146D6F880007B
:1076C00002B0BDE8F04127F0C5BE3946D6F88000CB
:1076D00027F0B2FEB36F1B78012BEDD0424639463E
:1076E000204618F0B9F9D6F88050024621462846BF
:1076F000E6E700BFEC30002038940020A4E7002328
:1077000007B502380193052817D8DFE800F01B16EB
:107710001D16031420210D4B01AA186829F006FF3D
:10772000019B2BB14FF0E0234FF08052C3F8042DA2
:1077300003B05DF804FB1021EDE7054B054A5A62E2
:1077400018F0F4FB0221E6E70821E4E7CC0B002067
:107750000000085001001D0308B5024A024B5A629E
:1077600018F0E4FB02001D030000085008B50020DB
:107770000CF048F8034B4FF400711868BDE808405E
:1077800029F0CEBDCC0B002001200CF03BB802202C
:107790000CF038B808B518F0B7FE1AF0C1F9BDE81A
:1077A000084002200CF02EB8814238B513D90022CF
:1077B000164B022983F8682D25D90024144B154D4A
:1077C0001A68154BDA6455F8043B03B19847013445
:1077D000032CF8D10FE001290BD801280B4B04D85A
:1077E00093F8683D03B151B138BD012283F8682D8B
:1077F000F9E70229E1D1BDE8384018F085BEBDE8BF
:1078000038401AF08DB9EFD1F5E700BFEC30002019
:10781000700A0020583E00200000085037B52D4C5B
:10782000D4F8800027F053FDC307054603D5D4F8EC
:10783000800027F06BFD15F4881F49D04FF0FF330F
:10784000CDE90033244B93F8783D03F0FF054BB1AD
:10785000002018F012FD0022D4F88000114627F015
:10786000CCFD0125D4E91F1027F0CDFD94F874302C
:107870000A3B012B0AD80022D4F88000114627F0D9
:10788000DEFB6946D4F8800026F064F9002201216D
:10789000D4F8800027F0D3FB01A9D4F8800026F0AB
:1078A00059F900980D4B18600199596018F052FE73
:1078B000002018F0E2FC5DB1A36F18781AF0EEF822
:1078C0000122D4F88000114627F097FD1CF0AAF899
:1078D00003B030BD38940020EC3000200000085088
:1078E00037B51F4DD5F87C0D58B10378DA060AD5A7
:1078F00000217F2381731A460190009308460BF004
:1079000025FF03B030BD448963051DD5837BDBB102
:10791000013B837318F004FEA0B14FF47A72114B4F
:107920009B6F9B88B3FBF2F303339BB2B5F8801DCA
:107930000D48C1F1C801C91A89B203B0BDE8304091
